{
  "_format": "hh-sol-artifact-1",
  "contractName": "ApeLiquefactionWalletFactory",
  "sourceName": "contracts/ApeLiquefactionWalletFactory.sol",
  "abi": [
    {
      "inputs": [
        {
          "internalType": "address",
          "name": "_parentWallet",
          "type": "address"
        },
        {
          "internalType": "contract IConstrainedTransactionPolicy",
          "name": "_txPolicy",
          "type": "address"
        },
        {
          "internalType": "contract INFTAuctionPolicy",
          "name": "_nftAuctionPolicy",
          "type": "address"
        },
        {
          "internalType": "contract IEncumbrancePolicy",
          "name": "_messagePolicy",
          "type": "address"
        },
        {
          "internalType": "uint256",
          "name": "_initialEncumbranceExpiration",
          "type": "uint256"
        }
      ],
      "stateMutability": "nonpayable",
      "type": "constructor"
    },
    {
      "inputs": [
        {
          "internalType": "uint256",
          "name": "walletIndex",
          "type": "uint256"
        }
      ],
      "name": "createWallet",
      "outputs": [
        {
          "internalType": "bool",
          "name": "created",
          "type": "bool"
        },
        {
          "internalType": "uint256",
          "name": "accountIndex",
          "type": "uint256"
        }
      ],
      "stateMutability": "nonpayable",
      "type": "function"
    },
    {
      "inputs": [
        {
          "internalType": "address",
          "name": "addr",
          "type": "address"
        }
      ],
      "name": "createdByFactory",
      "outputs": [
        {
          "internalType": "bool",
          "name": "",
          "type": "bool"
        }
      ],
      "stateMutability": "view",
      "type": "function"
    },
    {
      "inputs": [
        {
          "internalType": "address",
          "name": "addr",
          "type": "address"
        }
      ],
      "name": "createdBySender",
      "outputs": [
        {
          "internalType": "bool",
          "name": "",
          "type": "bool"
        }
      ],
      "stateMutability": "view",
      "type": "function"
    },
    {
      "inputs": [
        {
          "internalType": "uint256",
          "name": "walletIndex",
          "type": "uint256"
        }
      ],
      "name": "deriveWalletIndex",
      "outputs": [
        {
          "internalType": "uint256",
          "name": "",
          "type": "uint256"
        }
      ],
      "stateMutability": "view",
      "type": "function"
    },
    {
      "inputs": [],
      "name": "initialEncumbranceExpiration",
      "outputs": [
        {
          "internalType": "uint256",
          "name": "",
          "type": "uint256"
        }
      ],
      "stateMutability": "view",
      "type": "function"
    },
    {
      "inputs": [],
      "name": "messagePolicy",
      "outputs": [
        {
          "internalType": "contract IEncumbrancePolicy",
          "name": "",
          "type": "address"
        }
      ],
      "stateMutability": "view",
      "type": "function"
    },
    {
      "inputs": [],
      "name": "nftAuctionPolicy",
      "outputs": [
        {
          "internalType": "contract INFTAuctionPolicy",
          "name": "",
          "type": "address"
        }
      ],
      "stateMutability": "view",
      "type": "function"
    },
    {
      "inputs": [],
      "name": "signingWallet",
      "outputs": [
        {
          "internalType": "contract IEncumberedWallet",
          "name": "",
          "type": "address"
        }
      ],
      "stateMutability": "view",
      "type": "function"
    },
    {
      "inputs": [],
      "name": "txPolicy",
      "outputs": [
        {
          "internalType": "contract IConstrainedTransactionPolicy",
          "name": "",
          "type": "address"
        }
      ],
      "stateMutability": "view",
      "type": "function"
    }
  ],
  "bytecode": "0x6101003461010d57601f610c6038819003918201601f19168301916001600160401b038311848410176101125780849260a09460405283398101031261010d5780516001600160a01b038116919082900361010d5760208101516001600160a01b038116810361010d576040820151906001600160a01b038216820361010d5760608301516001600160a01b038116939084900361010d57608001519360805260a05260c05260018060a01b0319600054161760005560e052604051610b37908161012982396080518181816101a7015261029e015260a05181818161023101526103a3015260c05181818160a9015281816101ec015261054b015260e05181818161016e015261032a0152f35b600080fd5b634e487b7160e01b600052604160045260246000fdfe6080604052600436101561001257600080fd5b6000803560e01c80633ed3edaf1461099e578063553d7e48146109775780635ffa8d70146109185780637a675bb6146102605780638e87f3721461021b578063c29f8969146101d6578063c72cdfef14610191578063cc02cb83146101565763fa55dc6c1461008057600080fd5b34610153576020366003190112610153576004356001600160a01b0381169190829003610153577f00000000000000000000000000000000000000000000000000000000000000006001600160a01b031633036100f757602091815260028252604060018060a01b03912054161515604051908152f35b60405162461bcd60e51b815260206004820152602e60248201527f4f6e6c79207468652061756374696f6e20706f6c6963792063616e2063616c6c60448201526d103a3434b990333ab731ba34b7b760911b6064820152608490fd5b80fd5b503461015357806003193601126101535760206040517f00000000000000000000000000000000000000000000000000000000000000008152f35b50346101535780600319360112610153576040517f00000000000000000000000000000000000000000000000000000000000000006001600160a01b03168152602090f35b50346101535780600319360112610153576040517f00000000000000000000000000000000000000000000000000000000000000006001600160a01b03168152602090f35b50346101535780600319360112610153576040517f00000000000000000000000000000000000000000000000000000000000000006001600160a01b03168152602090f35b5034610153576020366003190112610153578033156108bb57610284600435610a19565b604051633d33addb60e11b815260048101829052909290917f00000000000000000000000000000000000000000000000000000000000000006001600160a01b031660208460248185855af19384156108b057829461086f575b50836102f7575b60408484825191151582526020820152f35b6040805192949350919061030b83836109f7565b60018252601f1983019586366020850137600261032784610a50565b527f000000000000000000000000000000000000000000000000000000000000000042019283421161085b578451903060208301526020825261036a86836109f7565b833b1561083957876103a16103eb92885193849283926338440fed60e21b845288600485015260a0602485015260a4840190610a73565b7f00000000000000000000000000000000000000000000000000000000000000006001600160a01b031660448401819052606484018b905283820360031901608485015296610aa7565b038183885af180156108515761083d575b5084519361040b6060866109f7565b60028552604036602087013761194561042386610a50565b528754865160209690916001600160a01b031661044088846109f7565b8a8352601f1988013689850137863b15610768578a916104a2610485928b5195869485946338440fed60e21b86528b600487015260a0602487015260a4860190610a73565b916044850152876064850152600319848303016084850152610aa7565b038183895af1801561081a57908991610824575b505085516365c0275760e11b8152600481018490528581602481885afa90811561081a5789916107e1575b506001600160a01b03168089526001808752878a20805460ff191690911790558089526002865286892080546001600160a01b0319163317905586519990919061052b888c6109f7565b60018b52868a5b8b8d8483106107c057505089516369d2de5160e11b81527f00000000000000000000000000000000000000000000000000000000000000006001600160a01b0316949350915089905081600481865afa9081156107b6578b9161076c575b5061059a8c610a50565b526105a48b610a50565b50875133888201528781526105b989826109f7565b843b156107685788519163017d97ff60e01b835260a4830185600485015260a060248501528d518091528960c485019e01908d5b81811061073a57505050826106208d9e8e9c9d9e9483948860448601526064850152600319848303016084850152610aa7565b038183885af180156107305790889161071b575b5050823b156107175760448792838a519586948593630a50938d60e21b8552600485015260248401525af1801561070d578493929186916106ee575b50506044908651958693849263034027d560e61b845260048401523360248401525af19283156106e5575084926106af575b50506040925038806102e5565b90809250813d83116106de575b6106c681836109f7565b810103126106da57604092505138806106a2565b8280fd5b503d6106bc565b513d86823e3d90fd5b81929450906106fc916109f7565b6107095782918438610670565b8380fd5b86513d87823e3d90fd5b8680fd5b81610725916109f7565b610717578638610634565b89513d8a823e3d90fd5b90919e8f8c918e91518051825283600160a01b600190039101511683820152019f01906001019190916105ed565b8a80fd5b90508881813d83116107af575b61078381836109f7565b81010312610768576107a5888a519261079b846109c5565b8051845201610ae8565b8882015238610590565b503d610779565b89513d8d823e3d90fd5b8284918d51936107cf856109c5565b80855283850152010152018790610532565b90508581813d8311610813575b6107f881836109f7565b8101031261080f5761080990610ae8565b386104e1565b8880fd5b503d6107ee565b87513d8b823e3d90fd5b8161082e916109f7565b6108395787386104b6565b8780fd5b8761084a919892986109f7565b95386103fc565b86513d8a823e3d90fd5b634e487b7160e01b87526011600452602487fd5b9093506020813d6020116108a8575b8161088b602093836109f7565b810103126108a4575180151581036108a45792386102de565b5080fd5b3d915061087e565b6040513d84823e3d90fd5b60405162461bcd60e51b815260206004820152602f60248201527f556e61757468656e746963617465642063616c6c2028796f752061726520746860448201526e65207a65726f20616464726573732960881b6064820152608490fd5b5034610153576020366003190112610153576004356001600160a01b038116908190036108a4576020913315159182610958575b50506040519015158152f35b81526002835260409020546001600160a01b031633149050388061094c565b5034610153578060031936011261015357546040516001600160a01b039091168152602090f35b50346101535760203660031901126101535760206109bd600435610a19565b604051908152f35b6040810190811067ffffffffffffffff8211176109e157604052565b634e487b7160e01b600052604160045260246000fd5b90601f8019910116810190811067ffffffffffffffff8211176109e157604052565b60405160208101916bffffffffffffffffffffffff193360601b168352603482015260348152610a4a6054826109f7565b51902090565b805115610a5d5760200190565b634e487b7160e01b600052603260045260246000fd5b906020808351928381520192019060005b818110610a915750505090565b8251845260209384019390920191600101610a84565b919082519283825260005b848110610ad3575050826000602080949584010152601f8019910116010190565b80602080928401015182828601015201610ab2565b51906001600160a01b0382168203610afc57565b600080fdfea2646970667358221220effa19588c216b6845b145ec7a2a00c3b41971f1114cb0a70c46358c69da353a64736f6c634300081c0033",
  "linkReferences": {},
  "deployedLinkReferences": {}
}