{
  "_format": "hh-sol-artifact-1",
  "contractName": "BasicEncumberedWallet",
  "sourceName": "liquefaction/contracts/wallet/BasicEncumberedWallet.sol",
  "abi": [
    {
      "inputs": [],
      "stateMutability": "nonpayable",
      "type": "constructor"
    },
    {
      "inputs": [],
      "name": "expmod_Error",
      "type": "error"
    },
    {
      "inputs": [],
      "name": "k256Decompress_Invalid_Length_Error",
      "type": "error"
    },
    {
      "inputs": [],
      "name": "k256DeriveY_Invalid_Prefix_Error",
      "type": "error"
    },
    {
      "inputs": [
        {
          "internalType": "uint256",
          "name": "index",
          "type": "uint256"
        }
      ],
      "name": "createWallet",
      "outputs": [
        {
          "internalType": "bool",
          "name": "",
          "type": "bool"
        }
      ],
      "stateMutability": "nonpayable",
      "type": "function"
    },
    {
      "inputs": [
        {
          "internalType": "uint256",
          "name": "accountIndex",
          "type": "uint256"
        }
      ],
      "name": "destroyExportedKey",
      "outputs": [],
      "stateMutability": "nonpayable",
      "type": "function"
    },
    {
      "inputs": [
        {
          "internalType": "uint256",
          "name": "accountIndex",
          "type": "uint256"
        },
        {
          "internalType": "bytes32[]",
          "name": "assets",
          "type": "bytes32[]"
        },
        {
          "internalType": "contract IEncumbrancePolicy",
          "name": "policy",
          "type": "address"
        },
        {
          "internalType": "uint256",
          "name": "expiry",
          "type": "uint256"
        },
        {
          "internalType": "bytes",
          "name": "data",
          "type": "bytes"
        }
      ],
      "name": "enterEncumbranceContract",
      "outputs": [],
      "stateMutability": "nonpayable",
      "type": "function"
    },
    {
      "inputs": [
        {
          "internalType": "uint256",
          "name": "accountIndex",
          "type": "uint256"
        }
      ],
      "name": "exportKey",
      "outputs": [
        {
          "internalType": "bytes",
          "name": "ciphertext",
          "type": "bytes"
        },
        {
          "internalType": "bytes32",
          "name": "nonce",
          "type": "bytes32"
        }
      ],
      "stateMutability": "view",
      "type": "function"
    },
    {
      "inputs": [
        {
          "internalType": "bytes",
          "name": "message",
          "type": "bytes"
        }
      ],
      "name": "findAsset",
      "outputs": [
        {
          "internalType": "bytes32",
          "name": "",
          "type": "bytes32"
        }
      ],
      "stateMutability": "pure",
      "type": "function"
    },
    {
      "inputs": [
        {
          "components": [
            {
              "internalType": "string",
              "name": "name",
              "type": "string"
            },
            {
              "internalType": "string",
              "name": "version",
              "type": "string"
            },
            {
              "internalType": "uint256",
              "name": "chainId",
              "type": "uint256"
            },
            {
              "internalType": "address",
              "name": "verifyingContract",
              "type": "address"
            },
            {
              "internalType": "bytes32",
              "name": "salt",
              "type": "bytes32"
            },
            {
              "internalType": "uint256",
              "name": "usedParamsMask",
              "type": "uint256"
            }
          ],
          "internalType": "struct EIP712DomainParams",
          "name": "domain",
          "type": "tuple"
        },
        {
          "internalType": "string",
          "name": "",
          "type": "string"
        },
        {
          "internalType": "bytes",
          "name": "",
          "type": "bytes"
        }
      ],
      "name": "findEip712Asset",
      "outputs": [
        {
          "internalType": "bytes32",
          "name": "",
          "type": "bytes32"
        }
      ],
      "stateMutability": "pure",
      "type": "function"
    },
    {
      "inputs": [
        {
          "internalType": "uint256",
          "name": "listIndex",
          "type": "uint256"
        }
      ],
      "name": "getAttendedWallet",
      "outputs": [
        {
          "components": [
            {
              "internalType": "uint256",
              "name": "index",
              "type": "uint256"
            },
            {
              "internalType": "uint256",
              "name": "blockNumber",
              "type": "uint256"
            }
          ],
          "internalType": "struct AttendedWallet",
          "name": "",
          "type": "tuple"
        }
      ],
      "stateMutability": "view",
      "type": "function"
    },
    {
      "inputs": [],
      "name": "getAttendedWalletCount",
      "outputs": [
        {
          "internalType": "uint256",
          "name": "",
          "type": "uint256"
        }
      ],
      "stateMutability": "view",
      "type": "function"
    },
    {
      "inputs": [
        {
          "internalType": "uint256",
          "name": "accountIndex",
          "type": "uint256"
        }
      ],
      "name": "getExportedKeyCounterparty",
      "outputs": [
        {
          "internalType": "Sapphire.Curve25519PublicKey",
          "name": "",
          "type": "bytes32"
        }
      ],
      "stateMutability": "view",
      "type": "function"
    },
    {
      "inputs": [],
      "name": "getLastAttendedWallet",
      "outputs": [
        {
          "internalType": "address",
          "name": "walletAddress",
          "type": "address"
        },
        {
          "internalType": "uint256",
          "name": "walletIndex",
          "type": "uint256"
        },
        {
          "internalType": "uint256",
          "name": "count",
          "type": "uint256"
        }
      ],
      "stateMutability": "view",
      "type": "function"
    },
    {
      "inputs": [
        {
          "internalType": "uint256",
          "name": "accountIndex",
          "type": "uint256"
        }
      ],
      "name": "getPublicKey",
      "outputs": [
        {
          "internalType": "bytes",
          "name": "",
          "type": "bytes"
        }
      ],
      "stateMutability": "view",
      "type": "function"
    },
    {
      "inputs": [
        {
          "internalType": "uint256",
          "name": "accountIndex",
          "type": "uint256"
        }
      ],
      "name": "getWalletAddress",
      "outputs": [
        {
          "internalType": "address",
          "name": "",
          "type": "address"
        }
      ],
      "stateMutability": "view",
      "type": "function"
    },
    {
      "inputs": [],
      "name": "keyExportPublicKey",
      "outputs": [
        {
          "internalType": "Sapphire.Curve25519PublicKey",
          "name": "",
          "type": "bytes32"
        }
      ],
      "stateMutability": "view",
      "type": "function"
    },
    {
      "inputs": [
        {
          "internalType": "uint256",
          "name": "accountIndex",
          "type": "uint256"
        },
        {
          "internalType": "Sapphire.Curve25519PublicKey",
          "name": "counterpartyPubKey",
          "type": "bytes32"
        },
        {
          "internalType": "bytes",
          "name": "ciphertext",
          "type": "bytes"
        },
        {
          "internalType": "bytes32",
          "name": "nonce",
          "type": "bytes32"
        }
      ],
      "name": "requestKeyExport",
      "outputs": [],
      "stateMutability": "nonpayable",
      "type": "function"
    },
    {
      "inputs": [
        {
          "internalType": "address",
          "name": "account",
          "type": "address"
        },
        {
          "internalType": "bytes",
          "name": "message",
          "type": "bytes"
        }
      ],
      "name": "signMessage",
      "outputs": [
        {
          "internalType": "bytes",
          "name": "",
          "type": "bytes"
        }
      ],
      "stateMutability": "view",
      "type": "function"
    },
    {
      "inputs": [
        {
          "internalType": "uint256",
          "name": "accountIndex",
          "type": "uint256"
        },
        {
          "internalType": "bytes",
          "name": "message",
          "type": "bytes"
        }
      ],
      "name": "signMessageSelf",
      "outputs": [
        {
          "internalType": "bytes",
          "name": "",
          "type": "bytes"
        }
      ],
      "stateMutability": "view",
      "type": "function"
    },
    {
      "inputs": [
        {
          "internalType": "address",
          "name": "account",
          "type": "address"
        },
        {
          "components": [
            {
              "internalType": "string",
              "name": "name",
              "type": "string"
            },
            {
              "internalType": "string",
              "name": "version",
              "type": "string"
            },
            {
              "internalType": "uint256",
              "name": "chainId",
              "type": "uint256"
            },
            {
              "internalType": "address",
              "name": "verifyingContract",
              "type": "address"
            },
            {
              "internalType": "bytes32",
              "name": "salt",
              "type": "bytes32"
            },
            {
              "internalType": "uint256",
              "name": "usedParamsMask",
              "type": "uint256"
            }
          ],
          "internalType": "struct EIP712DomainParams",
          "name": "domain",
          "type": "tuple"
        },
        {
          "internalType": "string",
          "name": "dataType",
          "type": "string"
        },
        {
          "internalType": "bytes",
          "name": "data",
          "type": "bytes"
        }
      ],
      "name": "signTypedData",
      "outputs": [
        {
          "internalType": "bytes",
          "name": "",
          "type": "bytes"
        }
      ],
      "stateMutability": "view",
      "type": "function"
    },
    {
      "inputs": [
        {
          "internalType": "uint256",
          "name": "accountIndex",
          "type": "uint256"
        },
        {
          "internalType": "address",
          "name": "newOwner",
          "type": "address"
        }
      ],
      "name": "transferAccountOwnership",
      "outputs": [
        {
          "internalType": "uint256",
          "name": "",
          "type": "uint256"
        }
      ],
      "stateMutability": "nonpayable",
      "type": "function"
    }
  ],
  "bytecode": "0x6080604052346102155760408051610017828261021a565b600a8152691ad95e48195e1c1bdc9d60b21b60208201528151602081019160208352838083015280519081606084015260005b8281106101ff5785600080878761007d6080828a86838284010152601f801991011681010301601f19810183528261021a565b51907301000000000000000000000000000000000000015afa61009e610253565b90156101bb578051156101a55760208101601f60fb1b81511660001a8251156101a55781538151601f10156101a557603f8201607f60f81b81511660001a8351601f10156101a55781538251601f10156101a557600160fe1b60ff60f81b8251161760001a918351601f10156101a5576000928392538351907301000000000000000000000000000000000000085afa610136610253565b90156101615761014861014e91610292565b91610292565b6007556008555161279f90816102b68239f35b825162461bcd60e51b815260206004820152601960248201527f67656e206375727665323535313920706b3a206661696c6564000000000000006044820152606490fd5b634e487b7160e01b600052603260045260246000fd5b815162461bcd60e51b815260206004820152601360248201527f72616e646f6d42797465733a206661696c6564000000000000000000000000006044820152606490fd5b806020809284010151608082870101520161004a565b600080fd5b601f909101601f19168101906001600160401b0382119082101761023d57604052565b634e487b7160e01b600052604160045260246000fd5b3d1561028d573d906001600160401b03821161023d5760405191610281601f8201601f19166020018461021a565b82523d6000602084013e565b606090565b6020815191015190602081106102a6575090565b6000199060200360031b1b169056fe6080604052600436101561001257600080fd5b60003560e01c80631eb00c311461013757806375d2c1ce146101325780637a675bb61461012d578063840128e114610128578063a5bbaaa914610123578063ac8ea24d1461011e578063b3ccf0d214610119578063b56d44c514610114578063b65801031461010f578063b70ac5d81461010a578063cb804eae14610105578063d009f54014610100578063d033cdfb146100fb578063db3386ff146100f6578063e1103fb4146100f1578063e449c3b0146100ec578063e646a971146100e75763f090cc79146100e257600080fd5b610d9d565b610d67565b610c27565b610b96565b610b5f565b610a39565b610890565b610860565b61082c565b610742565b6106f9565b6105d1565b61051c565b610483565b6102a2565b61026f565b610218565b3461019157602036600319011261019157604061017f610179600435600060208551610162816102f4565b828152015233600052600c60205283600020610dfd565b50610e1e565b60208251918051835201516020820152f35b600080fd5b60005b600881106101ac57505060086000910152565b8181015183820152602001610199565b60005b8381106101cf5750506000910152565b81810151838201526020016101bf565b906020916101f8815180928185528580860191016101bc565b601f01601f1916010190565b9060206102159281815201906101df565b90565b346101915760203660031901126101915761023f60043561023a331515610e3c565b611ce8565b600052600260205261026b6102576040600020610ebb565b6040519182916020835260208301906101df565b0390f35b3461019157602036600319011261019157602061028d60043561116c565b6040519015158152f35b600091031261019157565b34610191576000366003190112610191576020600854604051908152f35b6001600160a01b0381160361019157565b35906102dc826102c0565b565b634e487b7160e01b600052604160045260246000fd5b604081019081106001600160401b0382111761030f57604052565b6102de565b90601f801991011681019081106001600160401b0382111761030f57604052565b604051906102dc60c083610314565b604051906102dc604083610314565b604051906102dc608083610314565b6001600160401b03811161030f57601f01601f191660200190565b92919261038982610362565b916103976040519384610314565b829481845281830111610191578281602093846000960137010152565b9080601f83011215610191578160206102159335910161037d565b919060c083820312610191576103e3610335565b9280356001600160401b03811161019157826104009183016103b4565b845260208101356001600160401b0381116101915760a0926104239183016103b4565b60208501526040810135604085015261043e606082016102d1565b606085015260808101356080850152013560a0830152565b9181601f84011215610191578235916001600160401b038311610191576020838186019501011161019157565b34610191576080366003190112610191576004356104a0816102c0565b6024356001600160401b038111610191576104bf9036906004016103cf565b6044356001600160401b038111610191576104de903690600401610456565b919092606435926001600160401b0384116101915761026b94610508610510953690600401610456565b9490936114fa565b60405191829182610204565b3461019157602036600319011261019157610538600435611ce8565b8060005260096020526105566105516040600020612242565b6115ec565b600052600160205260406000206105766105708254610e81565b82610fdc565b60c181556000527fe3b0c44298fc1c149afbf4c8996fb92427ae41e4649b934ca495991b7852b855600260206000208281558260018201550155600080f35b9291906105cc6020916040865260408601906101df565b930152565b34610191576020366003190112610191576105ed600435611ce8565b8060005260096020526106066105516040600020612242565b80600052600a6020526106216040600020546007549061229a565b60008060409261065a61065585516106398782610314565b600a8152691ad95e48195e1c1bdc9d60b21b6020820152611dbf565b610fa2565b948252600160205283822061069b61067961067361165b565b92610ebb565b61068d87519384928a602085019788612327565b03601f198101835282610314565b51906003600160981b015afa906106b0611d8f565b91156106c45761026b9051928392836105b5565b5162461bcd60e51b815260206004820152600f60248201526e195b98dc9e5c1d0e8819985a5b1959608a1b6044820152606490fd5b3461019157604036600319011261019157600435610716816102c0565b6024356001600160401b0381116101915761026b9161073c610257923690600401610456565b916116c6565b34610191576060366003190112610191576004356001600160401b038111610191576107729036906004016103cf565b6024356001600160401b03811161019157610791903690600401610456565b5050604435906001600160401b038211610191576107b661026b923690600401610456565b5050604090602861081a602084516107ce8682610314565b60088152019267022a4a8169b9899160c51b84525184519283916107f6602084018097610196565b61080981518092602085870191016101bc565b82010103601f198101835282610314565b51902090519081529081906020820190565b3461019157602036600319011261019157610848600435611ce8565b600052600a6020526020604060002054604051908152f35b3461019157602036600319011261019157602061087e600435611741565b6040516001600160a01b039091168152f35b34610191576040366003190112610191576024356004356108b0826102c0565b6001600160a01b038216156109e8576109d861098b61026b938360006109286108db61099897611ce8565b926109096109046109006108f9876000526009602052604060002090565b5460ff1690565b1590565b6117b6565b3360009081526020819052604090205b90600052602052604060002090565b5560016109b261095461065561094f6bffffffffffffffffffffffff198760601b16611802565b611dbf565b96879584879561097a876109198a60018060a01b03166000526000602052604060002090565b556000526003602052604060002090565b546001600160a01b031690565b6001600160a01b0316600090815260046020526040902090565b43600382015580546001600160a01b0319166001600160a01b03851617815501556124de565b6040519081529081906020820190565b60405162461bcd60e51b8152602060048201526024808201527f4e6577206f776e65722063616e6e6f7420626520746865207a65726f206164646044820152637265737360e01b6064820152608490fd5b34610191576020366003190112610191576004356001600160401b03811161019157610a69903690600401610456565b60009181610a7d575b604051838152602090f35b601960f81b6001600160f81b0319610aa6610a98858561182a565b356001600160f81b03191690565b1603610b2a5760018211610ac3575b505061026b905b9038610a72565b600160f81b6001600160f81b0319610ade610a988585611833565b1603610af45750505061026b60005b9038610ab5565b604560f81b916001600160f81b031991610b1191610a9891611833565b1614610b21575b61026b90610aed565b50611945610b18565b600160f91b916001600160f81b031991610b4791610a989161182a565b1614610b57575b61026b90610abc565b506002610b4e565b346101915760003660031901126101915733600052600c6020526020604060002054604051908152f35b604435906102dc826102c0565b346101915760a0366003190112610191576004356024356001600160401b0381116101915736602382011215610191578060040135906001600160401b038211610191573660248360051b8301011161019157610bf1610b89565b60643590608435936001600160401b03851161019157610c2595610c1b6024963690600401610456565b9690950190611971565b005b34610191576080366003190112610191576024356044356004356001600160401b038211610191573660238301121561019157610d54610c74610d6493369060248160040135910161037d565b91610d07610cfa606435610c8784611ce8565b9586600052600b602052610ca16040600020544211611b1f565b610cc3610cbe6109006108f98a6000526009602052604060002090565b611b7f565b610cdf610cda886000526009602052604060002090565b612598565b610ceb6007548a61229a565b91610cf461165b565b9261260c565b6020815191012091611741565b6040805160208101828152600a60608301526912d95e48195e1c1bdc9d60b21b60808301526001600160a01b0390931691810191909152610d4b8160a0810161068d565b51902014611bcb565b600052600a602052604060002090565b55005b34610191576000366003190112610191576060610d82611c4a565b906040519260018060a01b0316835260208301526040820152f35b34610191576040366003190112610191576024356004356001600160401b03821161019157610de261025791610dda61026b943690600401610456565b929091611741565b6116c6565b634e487b7160e01b600052603260045260246000fd5b8054821015610e195760005260206000209060011b0190600090565b610de7565b90604051610e2b816102f4565b602060018294805484520154910152565b15610e4357565b60405162461bcd60e51b815260206004820152601660248201527553656e646572206973207a65726f206164647265737360501b6044820152606490fd5b90600182811c92168015610eb1575b6020831014610e9b57565b634e487b7160e01b600052602260045260246000fd5b91607f1691610e90565b9060405191826000825492610ecf84610e81565b8084529360018116908115610f3b5750600114610ef4575b506102dc92500383610314565b90506000929192526020600020906000915b818310610f1f5750509060206102dc9282010138610ee7565b6020919350806001915483858901015201910190918492610f06565b9050602092506102dc94915060ff191682840152151560051b82010138610ee7565b15610f6457565b60405162461bcd60e51b815260206004820152601660248201527505075626c6963206b6579206c656e67746820697320360541b6044820152606490fd5b602081519101519060208110610fb6575090565b6000199060200360031b1b1690565b818110610fd0575050565b60008155600101610fc5565b90601f8111610fe9575050565b6102dc916000526003601f6020600020920160051c82019101610fc5565b9190601f811161101657505050565b6102dc926000526020600020906020601f840160051c83019310611042575b601f0160051c0190610fc5565b9091508190611035565b91909182516001600160401b03811161030f576110738161106d8454610e81565b84611007565b6020601f82116001146110b45781906110a59394956000926110a9575b50508160011b916000199060031b1c19161790565b9055565b015190503880611090565b601f198216906110c984600052602060002090565b9160005b818110611105575095836001959697106110ec575b505050811b019055565b015160001960f88460031b161c191690553880806110e2565b9192602060018192868b0151815501940192016110cd565b80546801000000000000000081101561030f5761113f91600182018155610dfd565b919091611156576020816001925184550151910155565b634e487b7160e01b600052600060045260246000fd5b611177331515610e3c565b336000908152602081905260409020611191908290610919565b546112fe576112f9906112ba6112236111b06111ab611e3e565b611f11565b91906111be81511515610f5d565b61121e6111ca82610fa2565b93846111ec886109193360018060a01b03166000526000602052604060002090565b5561120a83611205876000526002602052604060002090565b61104c565b611205856000526001602052604060002090565b611fb5565b9061125b8261123c836000526003602052604060002090565b80546001600160a01b0319166001600160a01b03909216919091179055565b336000908152600c6020526040902061128590611276610344565b9086825243602083015261111d565b61128d610353565b33815293602085015260408401526000606084015260018060a01b03166000526004602052604060002090565b815181546001600160a01b0319166001600160a01b03919091161781559060039060609060208101516001850155604081015160028501550151910155565b600190565b50600090565b90816020910312610191575190565b908060209392818452848401376000828201840152601f01601f1916010190565b93919061021595936113b0926060875260a0611376611360855160c060608c01526101208b01906101df565b60208601518a8203605f190160808c01526101df565b936040810151828a0152600180831b0360608201511660c08a0152608081015160e08a015201516101008801528683036020880152611313565b926040818503910152611313565b6040513d6000823e3d90fd5b156113d157565b60405162461bcd60e51b815260206004820152602660248201527f54797065642064617461206d6573736167652074797065206e6f74207265636f60448201526519db9a5e995960d21b6064820152608490fd5b1561142c57565b60405162461bcd60e51b815260206004820152601860248201527f4e6f7420656e63756d62657265642062792073656e64657200000000000000006044820152606490fd5b1561147857565b60405162461bcd60e51b815260206004820152600e60248201526d14995b9d185b08195e1c1a5c995960921b6044820152606490fd5b90604051608081018181106001600160401b0382111761030f57604090815283546001600160a01b03168252600184015460208301526002840154908201526003909201546060830152565b60405163b658010360e01b815295949392919060208780611522898989898960048701611334565b0381305afa80156115e7576115ac6040926109986115a46115b1946102159c6000916115b8575b506115558115156113ca565b61158761158261157b836109198860018060a01b03166000526005602052604060002090565b33906120d5565b611425565b6001600160a01b0384166000908152600660205260409020610919565b544210611471565b6114ae565b0151612113565b6115da915060203d6020116115e0575b6115d28183610314565b810190611304565b38611549565b503d6115c8565b6113be565b156115f357565b60405162461bcd60e51b815260206004820152602560248201527f46696e616c697a6564206b6579206578706f72742072657175657374207265716044820152641d5a5c995960da1b6064820152608490fd5b60405190611655602083610314565b60008252565b6040519061166a602083610314565b6000808352366020840137565b916020610215938181520191611313565b1561168f57565b60405162461bcd60e51b815260206004820152600f60248201526e105cdcd95d081b9bdd08199bdd5b99608a1b6044820152606490fd5b60405163d033cdfb60e01b8152929190602084806116e8868660048401611677565b0381305afa80156115e7576115ac6040926109986115a461171b9461021599600091611722575b50611555811515611688565b01516123e5565b61173b915060203d6020116115e0576115d28183610314565b3861170f565b6117509061023a331515610e3c565b6000908152600360205260409020546001600160a01b031680156117715790565b60405162461bcd60e51b815260206004820152601c60248201527f57616c6c657420646f6573206e6f7420686176652061646472657373000000006044820152606490fd5b156117bd57565b60405162461bcd60e51b815260206004820152601d60248201527f4b6579206578706f727420686173206265656e207265717565737465640000006044820152606490fd5b90604051916bffffffffffffffffffffffff19166020830152601482526102dc603483610314565b9015610e195790565b9060011015610e195760010190565b1561184957565b60405162461bcd60e51b815260206004820152600f60248201526e105b1c9958591e48195e1c1a5c9959608a1b6044820152606490fd5b1561188757565b60405162461bcd60e51b8152602060048201526014602482015273141bdb1a58de481b9bdd081cdc1958da599a595960621b6044820152606490fd5b9190811015610e195760051b0190565b156118da57565b60405162461bcd60e51b8152602060048201526012602482015271105b1c9958591e48195b98dd5b58995c995960721b6044820152606490fd5b6001600160a01b0391821681529116602082015260a0604082018190528101839052909492906001600160fb1b038311610191576102159560c09360051b8091858401378101916060820152608083828403019101520191611313565b9261199b909691929496611986884210611842565b6001600160a01b03169361023a851515611880565b6119b86109046109006108f9846000526009602052604060002090565b6119cf61098b826000526003602052604060002090565b9060005b868110611a685750611a13611a02896119f684600052600b602052604060002090565b54818082119118021890565b91600052600b602052604060002090565b55833b1561019157611a42600096928793604051998a9889978896630139ea7160e11b88523360048901611914565b03925af180156115e757611a535750565b80611a6260006102dc93610314565b80610297565b600190611ab8611aa7611a8d8660018060a01b03166000526006602052604060002090565b611a98848c8b6118c3565b35600052602052604060002090565b548015908115611b15575b506118d3565b611aeb87611ae6611adb8760018060a01b03166000526005602052604060002090565b611a98858d8c6118c3565b612512565b6001600160a01b03841660009081526006602052604090208a90611b0e90611a8d565b55016119d3565b9050421138611ab2565b15611b2657565b60405162461bcd60e51b815260206004820152602b60248201527f4b6579207374696c6c20656e726f6c6c656420696e20616e20656e63756d627260448201526a616e636520706f6c69637960a81b6064820152608490fd5b15611b8657565b60405162461bcd60e51b815260206004820152601c60248201527f4b6579206578706f727420616c726561647920726571756573746564000000006044820152606490fd5b15611bd257565b60405162461bcd60e51b815260206004820152601b60248201527f496e636f727265637420646563727970746564206d65737361676500000000006044820152606490fd5b634e487b7160e01b600052601160045260246000fd5b6401000003d01903906401000003d0198211611c4557565b611c17565b33600052600c6020526040600020548015611c985733600052600c6020526040600020600019820190828211611c4557611c879161017991610dfd565b91611c928351611741565b92519190565b50600090600090600090565b15611cab57565b60405162461bcd60e51b815260206004820152601560248201527415d85b1b195d08191bd95cc81b9bdd08195e1a5cdd605a1b6044820152606490fd5b611cf3331515610e3c565b336000526000602052604060002090600052602052604060002054611d19811515611ca4565b80600052600360205260018060a01b03604060002054166000526004602052600360406000200154431115611d4b5790565b606460405162461bcd60e51b815260206004820152602060248201527f4163636f756e7420746f6f206e65772e2057616974206f6e6520626c6f636b2e6044820152fd5b3d15611dba573d90611da082610362565b91611dae6040519384610314565b82523d6000602084013e565b606090565b60008091604051611de68161068d60208201946020865260408084015260608301906101df565b51906001600160981b015afa611dfa611d8f565b9015611e035790565b60405162461bcd60e51b81526020600482015260136024820152721c985b991bdb509e5d195cce8819985a5b1959606a1b6044820152606490fd5b600080604051602081019060208252604080820152611de68161068d6060820160606101df565b906009821015611e725752565b634e487b7160e01b600052602160045260246000fd5b81601f82011215610191578051611e9e81610362565b92611eac6040519485610314565b818452602082840101116101915761021591602080850191016101bc565b9190916040818403126101915780516001600160401b0381116101915783611ef3918301611e88565b9260208201516001600160401b038111610191576102159201611e88565b60008091604051611f3f8161068d6020820194611f2f866004611e65565b60408084015260608301906101df565b51906005600160981b015afa611f53611d8f565b9015611f705780602080611f6c93518301019101611eca565b9091565b60405162461bcd60e51b815260206004820152601b60248201527f67656e207369676e696e67206b6579706169723a206661696c656400000000006044820152606490fd5b9060218251036120c457602182015191805115610e19576020015160f81c6000926002821415806120b9575b6120aa57838060405160208101906020825260206040820152602060608201526401000003d01960076401000003d0196401000003d019888009880908608082015263400000f4600160fe1b0360a08201526401000003d01960c080830191909152815261205060e082610314565b519060055afa9361205f611d8f565b941561209b57506120866120806120796102159596610fa2565b938461275c565b60011690565b1561267f579061209590611c2d565b9061267f565b63102875ed60e01b8152600490fd5b63ab4be04160e01b8452600484fd5b506003821415611fe1565b636446a2c560e11b60005260046000fd5b60018101544311156120f357546001600160a01b0391821691161490565b5050600090565b90604051916020830152602082526102dc604083610314565b602093929195946121df91600052600185526121326040600020610ebb565b9561213f87511515611ca4565b6121cd60405198899687966382ba97c160e01b88526060600489015260a061218c612177855160c060648d01526101248c01906101df565b858d01518b82036063190160848d01526101df565b604085015160a48b015260608501516000196001841b011660c48b0152608085015160e48b0152930151610104890152878303600319016024890152611313565b84810360031901604486015291611313565b038173__$ef1135a12a15c27376a922dfc270e8f8d4$__5af49182156115e7576102159261221591600091612223575b506120fa565b61221d611646565b916126ae565b61223c915060203d6020116115e0576115d28183610314565b3861220f565b6001810154431115612255575460ff1690565b60405162461bcd60e51b815260206004820152601c60248201527f426f6f6c2069732070656e64696e672066696e616c697a6174696f6e000000006044820152606490fd5b60009190829160405190602082019283526040820152604081526122bf606082610314565b51906002600160981b015afa6122d3611d8f565b90156122e25761021590610fa2565b60405162461bcd60e51b815260206004820152601a60248201527f64657269766553796d6d65747269634b65793a206661696c65640000000000006044820152606490fd5b92610215949261234992855260208501526080604085015260808401906101df565b9160608184039101526101df565b1561235e57565b60405162461bcd60e51b815260206004820152601b60248201527f4d6573736167652074797065206e6f74207265636f676e697a656400000000006044820152606490fd5b156123aa57565b60405162461bcd60e51b8152602060048201526013602482015272115b98dd5b589c985b98d948195e1c1a5c9959606a1b6044820152606490fd5b91906124036123fe846000526001602052604060002090565b610ebb565b9161241083511515611ca4565b60405163d033cdfb60e01b81529160208380612430858560048401611677565b0381305afa9182156115e75761249e6124966124a59461021598612215976000926124b1575b5061247c61098b6109199261246c851515612357565b6000526003602052604060002090565b6001600160a01b0316600090815260066020526040902090565b5442106123a3565b369161037d565b602081519101206120fa565b61091991925061098b6124d561247c9260203d6020116115e0576115d28183610314565b93925050612456565b906102dc9160018060a01b0316600052600c602052604060002060405191612505836102f4565b825243602083015261111d565b6001810191825443111561253f5781546001600160a01b0319166001600160a01b03909116179055439055565b60405162461bcd60e51b815260206004820152602b60248201527f416464726573733a204d756c7469706c65206368616e67657320696e2074686560448201526a2073616d6520626c6f636b60a81b6064820152608490fd5b600181019081544311156125b657805460ff19166001179055439055565b60405162461bcd60e51b815260206004820152602860248201527f426f6f6c3a204d756c7469706c65206368616e67657320696e207468652073616044820152676d6520626c6f636b60c01b6064820152608490fd5b909161262b6000949361068d8695604051948593602085019788612327565b51906004600160981b015afa61263f611d8f565b90156126485790565b60405162461bcd60e51b815260206004820152600f60248201526e191958dc9e5c1d0e8819985a5b1959608a1b6044820152606490fd5b604051916020830191825260408301526040825261269e606083610314565b905190206001600160a01b031690565b6126f961270b6000949361068d86956040519485936126e760208601986126d68a6004611e65565b6080604088015260a08701906101df565b858103601f19016060870152906101df565b838103601f19016080850152906101df565b51906006600160981b015afa61271f611d8f565b90156127285790565b60405162461bcd60e51b815260206004820152600c60248201526b1cda59db8e8819985a5b195960a21b6044820152606490fd5b91908201809211611c455756fea26469706673582212201fe703db0396f4a597afd33bcd04cd291921d240c7a704676506e13c001c0c9064736f6c634300081c0033",
  "linkReferences": {
    "liquefaction/contracts/parsing/EIP712Utils.sol": {
      "EIP712Utils": [
        {
          "length": 20,
          "start": 9369
        }
      ]
    }
  },
  "deployedLinkReferences": {
    "liquefaction/contracts/parsing/EIP712Utils.sol": {
      "EIP712Utils": [
        {
          "length": 20,
          "start": 8675
        }
      ]
    }
  }
}