{
  "_format": "hh-sol-artifact-1",
  "contractName": "ConstrainedTransactionPolicy",
  "sourceName": "contracts/ConstrainedTransactionPolicy.sol",
  "abi": [
    {
      "inputs": [
        {
          "internalType": "contract IEncumberedWallet",
          "name": "encumberedWallet",
          "type": "address"
        },
        {
          "internalType": "contract IBlockHashOracle",
          "name": "_ethBlockHashOracle",
          "type": "address"
        },
        {
          "internalType": "contract ProvethVerifier",
          "name": "_stateVerifier",
          "type": "address"
        }
      ],
      "stateMutability": "nonpayable",
      "type": "constructor"
    },
    {
      "inputs": [],
      "name": "InvalidShortString",
      "type": "error"
    },
    {
      "inputs": [
        {
          "internalType": "string",
          "name": "str",
          "type": "string"
        }
      ],
      "name": "StringTooLong",
      "type": "error"
    },
    {
      "anonymous": false,
      "inputs": [],
      "name": "EIP712DomainChanged",
      "type": "event"
    },
    {
      "inputs": [
        {
          "components": [
            {
              "components": [
                {
                  "internalType": "uint256",
                  "name": "chainId",
                  "type": "uint256"
                },
                {
                  "internalType": "uint256",
                  "name": "nonce",
                  "type": "uint256"
                },
                {
                  "internalType": "uint256",
                  "name": "maxPriorityFeePerGas",
                  "type": "uint256"
                },
                {
                  "internalType": "uint256",
                  "name": "maxFeePerGas",
                  "type": "uint256"
                },
                {
                  "internalType": "uint256",
                  "name": "gasLimit",
                  "type": "uint256"
                },
                {
                  "internalType": "bytes",
                  "name": "destination",
                  "type": "bytes"
                },
                {
                  "internalType": "uint256",
                  "name": "amount",
                  "type": "uint256"
                },
                {
                  "internalType": "bytes",
                  "name": "payload",
                  "type": "bytes"
                }
              ],
              "internalType": "struct Type2TxMessage",
              "name": "transaction",
              "type": "tuple"
            },
            {
              "internalType": "uint256",
              "name": "r",
              "type": "uint256"
            },
            {
              "internalType": "uint256",
              "name": "s",
              "type": "uint256"
            },
            {
              "internalType": "uint256",
              "name": "v",
              "type": "uint256"
            }
          ],
          "internalType": "struct Type2TxMessageSigned",
          "name": "signedTx",
          "type": "tuple"
        },
        {
          "components": [
            {
              "internalType": "bytes",
              "name": "rlpBlockHeader",
              "type": "bytes"
            },
            {
              "internalType": "bytes",
              "name": "transactionIndexRlp",
              "type": "bytes"
            },
            {
              "internalType": "bytes",
              "name": "transactionProofStack",
              "type": "bytes"
            }
          ],
          "internalType": "struct TransactionProof",
          "name": "inclusionProof",
          "type": "tuple"
        },
        {
          "internalType": "uint256",
          "name": "proofBlockNumber",
          "type": "uint256"
        }
      ],
      "name": "depositFunds",
      "outputs": [],
      "stateMutability": "nonpayable",
      "type": "function"
    },
    {
      "inputs": [
        {
          "internalType": "address",
          "name": "account",
          "type": "address"
        },
        {
          "internalType": "uint256",
          "name": "chainId",
          "type": "uint256"
        }
      ],
      "name": "depositLocalFunds",
      "outputs": [],
      "stateMutability": "payable",
      "type": "function"
    },
    {
      "inputs": [
        {
          "internalType": "bytes32",
          "name": "",
          "type": "bytes32"
        }
      ],
      "name": "depositTransactionsSeen",
      "outputs": [
        {
          "internalType": "bool",
          "name": "",
          "type": "bool"
        }
      ],
      "stateMutability": "view",
      "type": "function"
    },
    {
      "inputs": [],
      "name": "eip712Domain",
      "outputs": [
        {
          "internalType": "bytes1",
          "name": "fields",
          "type": "bytes1"
        },
        {
          "internalType": "string",
          "name": "name",
          "type": "string"
        },
        {
          "internalType": "string",
          "name": "version",
          "type": "string"
        },
        {
          "internalType": "uint256",
          "name": "chainId",
          "type": "uint256"
        },
        {
          "internalType": "address",
          "name": "verifyingContract",
          "type": "address"
        },
        {
          "internalType": "bytes32",
          "name": "salt",
          "type": "bytes32"
        },
        {
          "internalType": "uint256[]",
          "name": "extensions",
          "type": "uint256[]"
        }
      ],
      "stateMutability": "view",
      "type": "function"
    },
    {
      "inputs": [
        {
          "internalType": "address",
          "name": "account",
          "type": "address"
        },
        {
          "components": [
            {
              "internalType": "uint256",
              "name": "chainId",
              "type": "uint256"
            },
            {
              "internalType": "address",
              "name": "to",
              "type": "address"
            }
          ],
          "internalType": "struct DestinationAsset[]",
          "name": "destinations",
          "type": "tuple[]"
        },
        {
          "internalType": "contract IEncumbrancePolicy",
          "name": "subPolicy",
          "type": "address"
        },
        {
          "internalType": "uint256",
          "name": "expiry",
          "type": "uint256"
        },
        {
          "internalType": "bytes",
          "name": "data",
          "type": "bytes"
        }
      ],
      "name": "enterEncumbranceContract",
      "outputs": [],
      "stateMutability": "nonpayable",
      "type": "function"
    },
    {
      "inputs": [
        {
          "internalType": "uint256",
          "name": "length",
          "type": "uint256"
        }
      ],
      "name": "estimateInclusionProofCost",
      "outputs": [
        {
          "internalType": "uint256",
          "name": "",
          "type": "uint256"
        }
      ],
      "stateMutability": "pure",
      "type": "function"
    },
    {
      "inputs": [],
      "name": "ethBlockHashOracle",
      "outputs": [
        {
          "internalType": "contract IBlockHashOracle",
          "name": "",
          "type": "address"
        }
      ],
      "stateMutability": "view",
      "type": "function"
    },
    {
      "inputs": [
        {
          "components": [
            {
              "internalType": "uint256",
              "name": "chainId",
              "type": "uint256"
            },
            {
              "internalType": "uint256",
              "name": "nonce",
              "type": "uint256"
            },
            {
              "internalType": "uint256",
              "name": "maxPriorityFeePerGas",
              "type": "uint256"
            },
            {
              "internalType": "uint256",
              "name": "maxFeePerGas",
              "type": "uint256"
            },
            {
              "internalType": "uint256",
              "name": "gasLimit",
              "type": "uint256"
            },
            {
              "internalType": "bytes",
              "name": "destination",
              "type": "bytes"
            },
            {
              "internalType": "uint256",
              "name": "amount",
              "type": "uint256"
            },
            {
              "internalType": "bytes",
              "name": "payload",
              "type": "bytes"
            }
          ],
          "internalType": "struct Type2TxMessage",
          "name": "transaction",
          "type": "tuple"
        }
      ],
      "name": "findAssetFromTx",
      "outputs": [
        {
          "internalType": "bytes32",
          "name": "asset",
          "type": "bytes32"
        }
      ],
      "stateMutability": "pure",
      "type": "function"
    },
    {
      "inputs": [
        {
          "components": [
            {
              "internalType": "uint256",
              "name": "chainId",
              "type": "uint256"
            },
            {
              "internalType": "address",
              "name": "to",
              "type": "address"
            }
          ],
          "internalType": "struct DestinationAsset",
          "name": "asset",
          "type": "tuple"
        }
      ],
      "name": "getEncodedAsset",
      "outputs": [
        {
          "internalType": "bytes32",
          "name": "encodedAsset",
          "type": "bytes32"
        }
      ],
      "stateMutability": "pure",
      "type": "function"
    },
    {
      "inputs": [
        {
          "internalType": "address",
          "name": "account",
          "type": "address"
        },
        {
          "internalType": "uint256",
          "name": "chainId",
          "type": "uint256"
        }
      ],
      "name": "getEthBalance",
      "outputs": [
        {
          "internalType": "uint256",
          "name": "",
          "type": "uint256"
        }
      ],
      "stateMutability": "view",
      "type": "function"
    },
    {
      "inputs": [
        {
          "components": [
            {
              "internalType": "uint256",
              "name": "chainId",
              "type": "uint256"
            },
            {
              "internalType": "uint256",
              "name": "nonce",
              "type": "uint256"
            },
            {
              "internalType": "uint256",
              "name": "maxPriorityFeePerGas",
              "type": "uint256"
            },
            {
              "internalType": "uint256",
              "name": "maxFeePerGas",
              "type": "uint256"
            },
            {
              "internalType": "uint256",
              "name": "gasLimit",
              "type": "uint256"
            },
            {
              "internalType": "bytes",
              "name": "destination",
              "type": "bytes"
            },
            {
              "internalType": "uint256",
              "name": "amount",
              "type": "uint256"
            },
            {
              "internalType": "bytes",
              "name": "payload",
              "type": "bytes"
            }
          ],
          "internalType": "struct Type2TxMessage",
          "name": "transaction",
          "type": "tuple"
        }
      ],
      "name": "getMaxTransactionCost",
      "outputs": [
        {
          "internalType": "uint256",
          "name": "cost",
          "type": "uint256"
        }
      ],
      "stateMutability": "pure",
      "type": "function"
    },
    {
      "inputs": [
        {
          "internalType": "address",
          "name": "account",
          "type": "address"
        },
        {
          "internalType": "uint256",
          "name": "index",
          "type": "uint256"
        }
      ],
      "name": "getSignedIncludedTransaction",
      "outputs": [
        {
          "components": [
            {
              "internalType": "bytes32",
              "name": "unsignedTxHash",
              "type": "bytes32"
            },
            {
              "internalType": "uint256",
              "name": "blockNumber",
              "type": "uint256"
            }
          ],
          "internalType": "struct SignedIncludedTx",
          "name": "",
          "type": "tuple"
        }
      ],
      "stateMutability": "view",
      "type": "function"
    },
    {
      "inputs": [
        {
          "internalType": "address",
          "name": "account",
          "type": "address"
        },
        {
          "internalType": "uint256",
          "name": "chainId",
          "type": "uint256"
        }
      ],
      "name": "getSubpolicyLocalBalance",
      "outputs": [
        {
          "internalType": "uint256",
          "name": "",
          "type": "uint256"
        }
      ],
      "stateMutability": "view",
      "type": "function"
    },
    {
      "inputs": [
        {
          "internalType": "address",
          "name": "_addr",
          "type": "address"
        }
      ],
      "name": "isContract",
      "outputs": [
        {
          "internalType": "bool",
          "name": "",
          "type": "bool"
        }
      ],
      "stateMutability": "view",
      "type": "function"
    },
    {
      "inputs": [
        {
          "internalType": "address",
          "name": "",
          "type": "address"
        },
        {
          "internalType": "address",
          "name": "account",
          "type": "address"
        },
        {
          "internalType": "bytes32[]",
          "name": "assets",
          "type": "bytes32[]"
        },
        {
          "internalType": "uint256",
          "name": "expiration",
          "type": "uint256"
        },
        {
          "internalType": "bytes",
          "name": "data",
          "type": "bytes"
        }
      ],
      "name": "notifyEncumbranceEnrollment",
      "outputs": [],
      "stateMutability": "nonpayable",
      "type": "function"
    },
    {
      "inputs": [
        {
          "components": [
            {
              "components": [
                {
                  "internalType": "uint256",
                  "name": "chainId",
                  "type": "uint256"
                },
                {
                  "internalType": "uint256",
                  "name": "nonce",
                  "type": "uint256"
                },
                {
                  "internalType": "uint256",
                  "name": "maxPriorityFeePerGas",
                  "type": "uint256"
                },
                {
                  "internalType": "uint256",
                  "name": "maxFeePerGas",
                  "type": "uint256"
                },
                {
                  "internalType": "uint256",
                  "name": "gasLimit",
                  "type": "uint256"
                },
                {
                  "internalType": "bytes",
                  "name": "destination",
                  "type": "bytes"
                },
                {
                  "internalType": "uint256",
                  "name": "amount",
                  "type": "uint256"
                },
                {
                  "internalType": "bytes",
                  "name": "payload",
                  "type": "bytes"
                }
              ],
              "internalType": "struct Type2TxMessage",
              "name": "transaction",
              "type": "tuple"
            },
            {
              "internalType": "uint256",
              "name": "r",
              "type": "uint256"
            },
            {
              "internalType": "uint256",
              "name": "s",
              "type": "uint256"
            },
            {
              "internalType": "uint256",
              "name": "v",
              "type": "uint256"
            }
          ],
          "internalType": "struct Type2TxMessageSigned",
          "name": "signedTx",
          "type": "tuple"
        },
        {
          "components": [
            {
              "internalType": "bytes",
              "name": "rlpBlockHeader",
              "type": "bytes"
            },
            {
              "internalType": "bytes",
              "name": "transactionIndexRlp",
              "type": "bytes"
            },
            {
              "internalType": "bytes",
              "name": "transactionProofStack",
              "type": "bytes"
            }
          ],
          "internalType": "struct TransactionProof",
          "name": "inclusionProof",
          "type": "tuple"
        },
        {
          "internalType": "uint256",
          "name": "proofBlockNumber",
          "type": "uint256"
        }
      ],
      "name": "proveTransactionInclusion",
      "outputs": [],
      "stateMutability": "nonpayable",
      "type": "function"
    },
    {
      "inputs": [
        {
          "internalType": "address",
          "name": "account",
          "type": "address"
        },
        {
          "components": [
            {
              "internalType": "uint256",
              "name": "chainId",
              "type": "uint256"
            },
            {
              "internalType": "uint256",
              "name": "nonce",
              "type": "uint256"
            },
            {
              "internalType": "uint256",
              "name": "maxPriorityFeePerGas",
              "type": "uint256"
            },
            {
              "internalType": "uint256",
              "name": "maxFeePerGas",
              "type": "uint256"
            },
            {
              "internalType": "uint256",
              "name": "gasLimit",
              "type": "uint256"
            },
            {
              "internalType": "bytes",
              "name": "destination",
              "type": "bytes"
            },
            {
              "internalType": "uint256",
              "name": "amount",
              "type": "uint256"
            },
            {
              "internalType": "bytes",
              "name": "payload",
              "type": "bytes"
            }
          ],
          "internalType": "struct Type2TxMessage",
          "name": "transaction",
          "type": "tuple"
        }
      ],
      "name": "signTransaction",
      "outputs": [
        {
          "internalType": "bytes",
          "name": "",
          "type": "bytes"
        }
      ],
      "stateMutability": "view",
      "type": "function"
    },
    {
      "inputs": [],
      "name": "stateVerifier",
      "outputs": [
        {
          "internalType": "contract ProvethVerifier",
          "name": "",
          "type": "address"
        }
      ],
      "stateMutability": "view",
      "type": "function"
    },
    {
      "inputs": [
        {
          "internalType": "bytes32",
          "name": "",
          "type": "bytes32"
        }
      ],
      "name": "transactionCounts",
      "outputs": [
        {
          "internalType": "uint256",
          "name": "pendingAmount",
          "type": "uint256"
        },
        {
          "internalType": "uint256",
          "name": "finalizedAmount",
          "type": "uint256"
        },
        {
          "internalType": "uint256",
          "name": "pendingBlockNumber",
          "type": "uint256"
        }
      ],
      "stateMutability": "view",
      "type": "function"
    },
    {
      "inputs": [
        {
          "internalType": "address",
          "name": "account",
          "type": "address"
        },
        {
          "internalType": "address",
          "name": "newManager",
          "type": "address"
        }
      ],
      "name": "transferManagerOwnership",
      "outputs": [],
      "stateMutability": "nonpayable",
      "type": "function"
    }
  ],
  "bytecode": "0x61016080604052346101c2576060816131eb803803809161002082856101c7565b8339810103126101c25780516001600160a01b03811691908290036101c25760208101516001600160a01b03811691908290036101c257604001516001600160a01b03811692908390036101c25760405161007c6040826101c7565b6014815260208101907f4574685472616e73616374696f6e506f6c6963790000000000000000000000008252604051916100b76040846101c7565b600183526020830191603160f81b83526100d081610200565b610120526100dd846103c2565b61014052519020918260e05251902080610100524660a0526040519060208201927f8b73c3c69bb8fe3d512ecc4cf759cc79239f7b179b0ffacaa9a75d522b39400f8452604083015260608201524660808201523060a082015260a0815261014660c0826101c7565b5190206080523060c05260018060a01b0319600254161760025560018060a01b0319600354161760035560018060a01b03196004541617600455604051612c8a9081610561823960805181505060a05181505060c05181505060e051815050610100518150506101205181610a0201526101405181610a2c0152f35b600080fd5b601f909101601f19168101906001600160401b038211908210176101ea57604052565b634e487b7160e01b600052604160045260246000fd5b90815160208110600014610298575090601f81511161023c57602081519101516020821061022c571790565b6000198260200360031b1b161790565b6040519063305a27a960e01b8252602060048301528181519182602483015260005b8381106102805750508160006044809484010152601f80199101168101030190fd5b6020828201810151604487840101528593500161025e565b6001600160401b0381116101ea57600054600181811c911680156103b8575b60208210146103a257601f811161036d575b50602092601f821160011461030957928192936000926102fe575b50508160011b916000199060031b1c19161760005560ff90565b0151905038806102e4565b601f1982169360008052806000209160005b868110610355575083600195961061033c575b505050811b0160005560ff90565b015160001960f88460031b161c1916905538808061032e565b9192602060018192868501518155019401920161031b565b60008052601f6020600020910160051c810190601f830160051c015b81811061039657506102c9565b60008155600101610389565b634e487b7160e01b600052602260045260246000fd5b90607f16906102b7565b9081516020811060001461044a575090601f8151116103ee57602081519101516020821061022c571790565b6040519063305a27a960e01b8252602060048301528181519182602483015260005b8381106104325750508160006044809484010152601f80199101168101030190fd5b60208282018101516044878401015285935001610410565b6001600160401b0381116101ea57600154600181811c91168015610556575b60208210146103a257601f8111610520575b50602092601f82116001146104bb57928192936000926104b0575b50508160011b916000199060031b1c19161760015560ff90565b015190503880610496565b601f198216936001600052806000209160005b86811061050857508360019596106104ef575b505050811b0160015560ff90565b015160001960f88460031b161c191690553880806104e1565b919260206001819286850151815501940192016104ce565b6001600052601f6020600020910160051c810190601f830160051c015b81811061054a575061047b565b6000815560010161053d565b90607f169061046956fe608080604052600436101561001357600080fd5b600090813560e01c908163017d97ff14611746575080630273d4e2146115165780630e6cb1e61461116d578063162790551461114057806329424e341461108b5780632db972e714610ceb5780632f18d6b814610ca95780632fee744914610bf557806354c266a814610b6b5780636e24ca3d14610b3357806371d98a7914610b1457806372fbb00014610ae557806384b0196e146109e857806391caa941146109bf57806394a833bb14610288578063c601b35f14610240578063cfcd421714610205578063e36f9e04146101dc578063e814b776146101425763fbcc6d74146100fd57600080fd5b3461013f57602036600319011261013f57600435906001600160401b03821161013f5760206101376101323660048601611cc4565b61246a565b604051908152f35b80fd5b503461013f57604036600319011261013f5761015c611b9c565b33156101975761013760209160405161018f8161018186820194602435903387611ec5565b03601f198101835282611c41565b519020612573565b60405162461bcd60e51b815260206004820152601760248201527f41757468656e7469636174696f6e2072657175697265640000000000000000006044820152606490fd5b503461013f578060031936011261013f576003546040516001600160a01b039091168152602090f35b503461013f57602036600319011261013f57600435906001600160401b03821161013f57602061013761023b3660048601611cc4565b612440565b503461013f57604036600319011261013f576040519061025f82611bf5565b6004358252602435906001600160a01b038216820361013f57602061013784848382015261240b565b503461013f5761029736611db9565b90916102a3818061212e565b359073__$b0171736f69f8eb9250b2b8dabf000e581$__6102e2866102c8848061212e565b60405180938192634dec0b9b60e11b835260048301612174565b0381855af49081156109b457879161099a575b50602081519101209061032761032160ff60f81b606086013560f81b16604086013560208701356121fa565b8361260e565b5060048198929810156109865761033e9015612227565b80518051602091820120600354604051637741562f60e11b8152600481018a90529290839060249082908e906001600160a01b03165af190811561097b578a91610940575b61038e925014612267565b6103983685611fb0565b9060608201805190601a19820191821161092c578a926103dd95949284925260018060a01b03600454166040518080988194632770f30d60e21b83526004830161203d565b03915afa9283156109215761040f948394610905575b5060405180809681946389e9435760e01b83526004830161208b565b03915af480156108fa5761043a9289916108d8575b50602081519101209060208151910120146120c4565b6020610446838061212e565b604080516001600160a01b03891660208201908152918101879052919092013591610480916104788160608101610181565b519020612524565b0361089e57604080516001600160a01b038716602082019081529181018590526104ad8160608101610181565b51902060206104bc848061212e565b0135906001820180921161088a576104d381612524565b91828110610833576104ee926104e89161201a565b90612826565b6105386104fb838061212e565b3561051c61051661050c868061212e565b60a08101906122c7565b906122f9565b60601c6040519161052c83611bf5565b8252602082015261240b565b9360018060a01b0386169485885260066020526040882090885260205260018060a01b036040882054169461057e604051602081019061018f816101818a8d8d87611ec5565b61059461023b3661058f888061212e565b611cc4565b8082101561082c57505b60405160208101906105b6816101818a8d8d87611ec5565b519020808a52600560205260408a2054151580610814575b610804575b6105de8160056125c2565b821161075257895260056020526105fd600160408b200191825461201a565b90558752600c602052604080882060009060018060a01b0388168252602052206040519261062a84611bf5565b835260208301918252805490680100000000000000008210156107f0579061065791600182018155612387565b9290926107dc576106db9361068e9360016106879461067d94518355519101558061212e565b60e08101906122c7565b90506123c6565b6106b160405160208101906106a981610181888b8b87611ec5565b5190206124d5565b808210156107d557505b47808210156107cd5750935b610181604051938492602084019687611ec5565b519020808352600d60205260408320541515806107b5575b6107a5575b61070381600d6125c2565b8211610752578280809381938252600d6020526001604083200161072882825461201a565b9055818115610749575b3390f11561073d5780f35b604051903d90823e3d90fd5b506108fc610732565b60405162461bcd60e51b815260206004820152602560248201527f44656372656173652067726561746572207468616e2066696e616c697a65642060448201526476616c756560d81b6064820152608490fd5b6107b081600d6129a5565b6106f8565b50808352600d602052600260408420015443116106f3565b9050936106c7565b90506106bb565b634e487b7160e01b88526004889052602488fd5b634e487b7160e01b89526041600452602489fd5b61080f8160056129a5565b6105d3565b50808a526005602052600260408b20015443116105ce565b905061059e565b60405162461bcd60e51b815260206004820152602960248201527f56616c756520646563726561736520676976656e20746f20736574496e6372656044820152686173656456616c756560b81b6064820152608490fd5b634e487b7160e01b88526011600452602488fd5b60405162461bcd60e51b8152602060048201526012602482015271283937b7b31037baba1037b31037b93232b960711b6044820152606490fd5b6108f491503d808b833e6108ec8183611c41565b810190611ee7565b38610424565b6040513d8a823e3d90fd5b61091a9194503d8085833e6108ec8183611c41565b92386103f3565b6040513d84823e3d90fd5b634e487b7160e01b8b52601160045260248bfd5b90506020823d602011610973575b8161095b60209383611c41565b8101031261096e5761038e915190610383565b600080fd5b3d915061094e565b6040513d8c823e3d90fd5b634e487b7160e01b89526021600452602489fd5b6109ae91503d8089833e6108ec8183611c41565b386102f5565b6040513d89823e3d90fd5b503461013f578060031936011261013f576004546040516001600160a01b039091168152602090f35b503461013f578060031936011261013f57610a8990610a267f0000000000000000000000000000000000000000000000000000000000000000612a59565b90610a507f0000000000000000000000000000000000000000000000000000000000000000612b82565b906020610a9760405193610a648386611c41565b8385526000368137604051968796600f60f81b885260e08589015260e0880190611d94565b908682036040880152611d94565b904660608601523060808601528260a086015284820360c08601528080855193848152019401925b828110610ace57505050500390f35b835185528695509381019392810192600101610abf565b503461013f57602036600319011261013f5760ff60406020926004358152600984522054166040519015158152f35b503461013f57602036600319011261013f5760206101376004356123c6565b503461013f57604036600319011261013f576020610137610b52611b9c565b6040516106a98161018186820194602435903387611ec5565b503461013f57604036600319011261013f57604090610b88611b9c565b8160208451610b9681611bf5565b82815201526001600160a01b03168152600c60209081529190203360009081529152604090819020610bcb9060243590612387565b508151610bd781611bf5565b60206001835493848452015491019081528251918252516020820152f35b50604036600319011261013f57610c0a611b9c565b6001600160a01b038181168352600b602052604083205416610c2d81151561232f565b3415610c6e57610c6b91610c61610c539260405193849160208301946024359186611ec5565b03601f198101845283611c41565b349151902061273c565b80f35b60405162461bcd60e51b8152602060048201526013602482015272139bc8199d5b991cc81d1bc819195c1bdcda5d606a1b6044820152606490fd5b503461013f57602036600319011261013f5760406060916004358152600860205220805490600260018201549101549060405192835260208301526040820152f35b503461013f57610cfa36611db9565b9091610d063682611fb0565b9260608401805190601a198201918211611077575260018060a01b036004541693856040518096632770f30d60e21b82528180610d46876004830161203d565b03915afa948515610fba57869561105b575b50610d8d8673__$b0171736f69f8eb9250b2b8dabf000e581$__92604051809381926389e9435760e01b83526004830161208b565b0381855af49081156109b4578791611041575b506020815191012094331561100a57858752600960205260ff604088205416610fc557610e0091610dda878360208b9551910120146120c4565b610de4858061212e565b906040518080958194634dec0b9b60e11b835260048301612174565b03915af48015610fba57610e43918791610fa0575b5060208151910120610e3d60ff60f81b606086013560f81b16604086013560208701356121fa565b9061260e565b5090506004811015610f8c578591610e5d60209215612227565b51805190820120600354604051637741562f60e11b81526004810196909652909492839160249183916001600160a01b03165af1908115610f81578591610f4d575b50610eae90610f349314612267565b610eb8818061212e565b359060c0610ed9610ecf61051661050c858061212e565b60601c928061212e565b828752600b60205260408720549101359290610eff906001600160a01b0316151561232f565b818652600b602052610f2c60018060a01b0360408820541692610181604051938492602084019687611ec5565b51902061264a565b8152600960205260408120805460ff1916600117905580f35b90506020813d602011610f79575b81610f6860209383611c41565b8101031261096e5751610f34610e9f565b3d9150610f5b565b6040513d87823e3d90fd5b634e487b7160e01b86526021600452602486fd5b610fb491503d8089833e6108ec8183611c41565b38610e15565b6040513d88823e3d90fd5b60405162461bcd60e51b815260206004820152601860248201527f5472616e73616374696f6e20616c7265616479207365656e00000000000000006044820152606490fd5b60405162461bcd60e51b815260206004820152600f60248201526e155b985d5d1a195b9d1a58d85d1959608a1b6044820152606490fd5b61105591503d8089833e6108ec8183611c41565b38610da0565b6110709195503d8088833e6108ec8183611c41565b9338610d58565b634e487b7160e01b87526011600452602487fd5b503461013f57604036600319011261013f576110a5611b9c565b6110ad611bb2565b6001600160a01b03918216808452600b6020526040842054919290911633036110fb578252600b6020526040822080546001600160a01b0319166001600160a01b0390921691909117905580f35b60405162461bcd60e51b815260206004820152601760248201527f4e6f74207468652063757272656e74206d616e616765720000000000000000006044820152606490fd5b503461013f57602036600319011261013f57602063ffffffff611161611b9c565b3b161515604051908152f35b503461013f57604036600319011261013f57611187611b9c565b6024356001600160401b038111611512576111a6903690600401611cc4565b6111b460e0820151516123c6565b6111d082516040516106a9816101816020820194893387611ec5565b106114af576111de8161246a565b6001600160a01b03808416808652600660209081526040808820858952909152862054909492913391160361146a578385526007602052604085209085526020526040842054421015611425576020828101518351604080516001600160a01b038616948101948552908101919091529091611261916104788160608101610181565b036113ee576112849061018161018f845160405192839160208301953387611ec5565b61128d82612440565b1161139357600254604051634dec0b9b60e11b81526020600482015292849290916001600160a01b0316908390859081906112cc906024830190611f48565b038173__$b0171736f69f8eb9250b2b8dabf000e581$__5af49182156113885761132194849361136c575b5060405180958194829363b56d44c560e01b84526004840152604060248401526044830190611d94565b03915afa908115610921578261134d9392611351575b5050604051918291602083526020830190611d94565b0390f35b61136592503d8091833e6108ec8183611c41565b3880611337565b6113819193503d8086833e6108ec8183611c41565b91386112f7565b6040513d85823e3d90fd5b60405162461bcd60e51b815260206004820152602d60248201527f496e73756666696369656e742062616c616e636520746f2073656e642074686960448201526c39903a3930b739b0b1ba34b7b760991b6064820152608490fd5b60405162461bcd60e51b815260206004820152600f60248201526e496e636f7272656374206e6f6e636560881b6044820152606490fd5b60405162461bcd60e51b815260206004820152601860248201527f5375622d706f6c696379206c65617365206578706972656400000000000000006044820152606490fd5b60405162461bcd60e51b815260206004820152601a60248201527f4e6f742074686520656e726f6c6c656420737562706f6c6963790000000000006044820152606490fd5b60405162461bcd60e51b815260206004820152603560248201527f496e73756666696369656e74206c6f63616c2062616c616e636520746f2070616044820152743c903337b91034b731b63ab9b4b7b710383937b7b360591b6064820152608490fd5b8280fd5b503461013f5760a036600319011261013f57611530611b9c565b50611539611bb2565b6044356001600160401b0381116115125736602382011215611512578060040135916001600160401b038311611742573660248460051b8401011161174257606435906084356001600160401b03811161173e5761159b903690600401611bc8565b600254919290916001600160a01b031633036116e9574284106116a45786875b878110156115e657600260248260051b89010135146115dd575b6001016115bb565b600191506115d5565b508795501561165057602091839160018060a01b031694858752600a845260408720558101031261151257356001600160a01b0381169190829003611512578252600b6020526040822080546001600160a01b0319166001600160a01b0390921691909117905580f35b60405162461bcd60e51b815260206004820152602660248201527f457468657265756d207472616e73616374696f6e2061737365742069732072656044820152651c5d5a5c995960d21b6064820152608490fd5b60405162461bcd60e51b815260206004820152601960248201527f45787069726174696f6e20697320696e207468652070617374000000000000006044820152606490fd5b60405162461bcd60e51b815260206004820152602760248201527f4e6f7420612077616c6c657420636f6e747261637420756e646572207468697360448201526620706f6c69637960c81b6064820152608490fd5b8580fd5b8380fd5b823461013f5760a036600319011261013f57611760611b9c565b91602435916001600160401b03831161013f573660238401121561013f578260040135926001600160401b038411611b98573660248560061b83010111611b98576044356001600160a01b038116939084900361151257606435916084356001600160401b038111611b94576117da903690600401611bc8565b97909284421015611b6057508515611b24576001600160a01b03908116808652600b6020526040862054909391163303611ad357828552600a60205260408520548411611a785761182a87611e8d565b97611838604051998a611c41565b87895261184488611e8d565b60208a019290601f1901368437865b8981101561198d578060061b8501604060231982360301126119895760446040519161187e83611bf5565b6024810135835201356001600160a01b03811681036119855760208201526118a59061240b565b868952600760205260408920818a526020526040892054801590811561197b575b501561194157868952600660205260408920818a52602052604089208a6bffffffffffffffffffffffff60a01b825416179055868952600760205260408920818a526020528760408a20558b5182101561192d57600582901b8c0160200152600101611853565b634e487b7160e01b89526032600452602489fd5b60405162461bcd60e51b8152602060048201526012602482015271105b1c9958591e48195b98dd5b58995c995960721b6044820152606490fd5b905042118d6118c6565b8980fd5b8880fd5b5087935086958a63ffffffff863b166119a4578780f35b868852600b60205260408820546001600160a01b031690863b156119895796939188959391604051988996630139ea7160e11b885260a48801926004890152602488015260a060448801525180915260c486019490875b818110611a5c57505050611a278697948694889486946064860152600319858403016084860152611ea4565b03925af18015611a4f57611a3f575b81808080808780f35b611a4891611c41565b8181611a36565b50604051903d90823e3d90fd5b825187528b98508a9750602096870196909201916001016119fb565b60405162461bcd60e51b815260206004820152602d60248201527f457870697279206973206166746572206163636f756e74277320656e63756d6260448201526c72616e6365206578706972657360981b6064820152608490fd5b60405162461bcd60e51b815260206004820152602360248201527f4e6f7420656e63756d6265726564206163636f756e742773207478206d616e6160448201526233b2b960e91b6064820152608490fd5b60405162461bcd60e51b8152602060048201526014602482015273141bdb1a58de481b9bdd081cdc1958da599a595960621b6044820152606490fd5b62461bcd60e51b815260206004820152600f60248201526e105b1c9958591e48195e1c1a5c9959608a1b6044820152606490fd5b8480fd5b5080fd5b600435906001600160a01b038216820361096e57565b602435906001600160a01b038216820361096e57565b9181601f8401121561096e578235916001600160401b03831161096e576020838186019501011161096e57565b604081019081106001600160401b03821117611c1057604052565b634e487b7160e01b600052604160045260246000fd5b606081019081106001600160401b03821117611c1057604052565b90601f801991011681019081106001600160401b03821117611c1057604052565b6001600160401b038111611c1057601f01601f191660200190565b81601f8201121561096e57803590611c9482611c62565b92611ca26040519485611c41565b8284526020838301011161096e57816000926020809301838601378301015290565b91906101008382031261096e576040519061010082018281106001600160401b03821117611c10576040528193803583526020810135602084015260408101356040840152606081013560608401526080810135608084015260a08101356001600160401b03811161096e5782611d3c918301611c7d565b60a084015260c081013560c084015260e0810135916001600160401b03831161096e5760e092611d6c9201611c7d565b910152565b60005b838110611d845750506000910152565b8181015183820152602001611d74565b90602091611dad81518092818552858086019101611d71565b601f01601f1916010190565b90606060031983011261096e576004356001600160401b03811161096e576080818403600319011261096e57600401916024356001600160401b03811161096e576060818303600319011261096e5760405191611e1583611c26565b81600401356001600160401b03811161096e57816004611e3792850101611c7d565b835260248201356001600160401b03811161096e57816004611e5b92850101611c7d565b60208401526044820135916001600160401b03831161096e57611e819201600401611c7d565b60408201529060443590565b6001600160401b038111611c105760051b60200190565b908060209392818452848401376000828201840152601f01601f1916010190565b6001600160a01b03918216815291166020820152604081019190915260600190565b60208183031261096e578051906001600160401b03821161096e570181601f8201121561096e578051611f1981611c62565b92611f276040519485611c41565b8184526020828401011161096e57611f459160208085019101611d71565b90565b611f4591815181526020820151602082015260408201516040820152606082015160608201526080820151608082015260e0611f9560a084015161010060a0850152610100840190611d94565b9260c081015160c084015201519060e0818403910152611d94565b91909160808184031261096e5760405190608082018281106001600160401b03821117611c105760405281938135916001600160401b03831161096e57611ffd6060939284938301611cc4565b845260208101356020850152604081013560408501520135910152565b9190820391821161202757565b634e487b7160e01b600052601160045260246000fd5b90611f45916020815260406120766120618451606060208601526080850190611d94565b6020850151848203601f190184860152611d94565b920151906060601f1982850301910152611d94565b60208152608060606120a8845183602086015260a0850190611f48565b9360208101516040850152604081015182850152015191015290565b156120cb57565b60405162461bcd60e51b815260206004820152603560248201527f496e636c7573696f6e2070726f6f66206f6620616e20696e636f72726563742060448201527437b91030b139b2b73a103a3930b739b0b1ba34b7b760591b6064820152608490fd5b90359060fe198136030182121561096e570190565b9035601e198236030181121561096e5701602081359101916001600160401b03821161096e57813603831361096e57565b90611f45916020815281356020820152602082013560408201526040820135606082015260608201356080820152608082013560a08201526121e76121d26121bf60a0850185612143565b61010060c0860152610120850191611ea4565b9260c081013560e084015260e0810190612143565b91610100601f1982860301910152611ea4565b929190604051936020850152604084015260ff60f81b16606083015260418252612225606183611c41565b565b1561222e57565b60405162461bcd60e51b8152602060048201526011602482015270496e76616c6964207369676e617475726560781b6044820152606490fd5b1561226e57565b60405162461bcd60e51b815260206004820152602b60248201527f426c6f636b206861736820696e636f7272656374206f72206e6f7420666f756e60448201526a6420696e206f7261636c6560a81b6064820152608490fd5b903590601e198136030182121561096e57018035906001600160401b03821161096e5760200191813603831361096e57565b356001600160601b0319811692919060148210612314575050565b6001600160601b031960149290920360031b82901b16169150565b1561233657565b60405162461bcd60e51b8152602060048201526024808201527f4d616e61676572206e6f74207365742079657420666f722074686973206163636044820152631bdd5b9d60e21b6064820152608490fd5b80548210156123a35760005260206000209060011b0190600090565b634e487b7160e01b600052603260045260246000fd5b9190820180921161202757565b600a1c62015345810290808204620153451490151715612027576204690881018091116120275764174876e80081029080820464174876e80014901517156120275790565b8051602091820151604080519384019283526001600160a01b039091168382015282529061243a606082611c41565b51902090565b60c081015190606060808201519101519081810291818304149015171561202757611f45916123b9565b611f459060a0815191015160208151910151906bffffffffffffffffffffffff19821691601482106124b5575b5050604051916124a683611bf5565b825260601c602082015261240b565b6001600160601b031960149290920360031b82901b161690503880612497565b611f459080600052600d602052600260406000200154431160001461251c5780600052600d602052604060002054905b600052600d602052600160406000200154906123b9565b600090612505565b611f4590806000526008602052600260406000200154431160001461256b57806000526008602052604060002054905b6000526008602052600160406000200154906123b9565b600090612554565b611f459080600052600560205260026040600020015443116000146125ba57806000526005602052604060002054905b6000526005602052600160406000200154906123b9565b6000906125a3565b90611f459181600052806020526002604060002001544311600014612606578160005280602052604060002054915b600052602052600160406000200154906123b9565b6000916125f1565b815191906041830361263f5761263892506020820151906060604084015193015160001a90612910565b9192909190565b505060009160029190565b811561273857600081815260056020526040902060020154156126f95780600052600560205260026040600020015443116000146126dd578061269060029260056129a5565b806000526005602052600160406000200154604051936126af85611c26565b8452602084019081526040840191438352600052600560205260406000209351845551600184015551910155565b60005260056020526126f560406000209182546123b9565b9055565b6002906040519261270984611c26565b835260208301600081526040840191438352600052600560205260406000209351845551600184015551910155565b5050565b8115612738576000818152600d6020526040902060020154156127e75780600052600d60205260026040600020015443116000146127cf5780612782600292600d6129a5565b80600052600d602052600160406000200154604051936127a185611c26565b8452602084019081526040840191438352600052600d60205260406000209351845551600184015551910155565b600052600d6020526126f560406000209182546123b9565b600290604051926127f784611c26565b835260208301600081526040840191438352600052600d60205260406000209351845551600184015551910155565b811561273857600081815260086020526040902060020154156128d15780600052600860205260026040600020015443116000146128b9578061286c60029260086129a5565b8060005260086020526001604060002001546040519361288b85611c26565b8452602084019081526040840191438352600052600860205260406000209351845551600184015551910155565b60005260086020526126f560406000209182546123b9565b600290604051926128e184611c26565b835260208301600081526040840191438352600052600860205260406000209351845551600184015551910155565b91907f7fffffffffffffffffffffffffffffff5d576e7357a4501ddfe92f46681b20a08411612999579160209360809260ff60009560405194855216868401526040830152606082015282805260015afa1561298d576000516001600160a01b038116156129815790600090600090565b50600090600190600090565b6040513d6000823e3d90fd5b50505060009160039190565b9080600052816020526002604060002001544311156129fa57600081815260208390526040902080546001909101805490916129e0916123b9565b905560009081526020919091526040812081815560020155565b60405162461bcd60e51b815260206004820152603160248201527f4e65656420746f207761697420666f7220616e6f7468657220626c6f636b206260448201527032b337b932903334b730b634bd34b7339760791b6064820152608490fd5b60ff8114612aa35760ff811690601f8211612a92576040805192612a7d8285611c41565b6020808552840191601f190136833783525290565b632cd44ac360e21b60005260046000fd5b5060405160008054908160011c91600181168015612b78575b602084108114612b64578385528492918115612b455750600114612ae7575b611f4592500382611c41565b50600080805290917f290decd9548b62a8d60345a988386fc84ba6bc95484008f6362f93160ef3e5635b818310612b29575050906020611f4592820101612adb565b6020919350806001915483858801015201910190918392612b11565b60209250611f4594915060ff191682840152151560051b820101612adb565b634e487b7160e01b83526022600452602483fd5b92607f1692612abc565b60ff8114612ba65760ff811690601f8211612a92576040805192612a7d8285611c41565b506040516000600154908160011c91600181168015612c4a575b602084108114612b64578385528492918115612b455750600114612bea57611f4592500382611c41565b506001600090815290917fb10e2d527612073b26eecdfd717e6a320cf44b4afac2b0732d9fcbe2b7fa0cf65b818310612c2e575050906020611f4592820101612adb565b6020919350806001915483858801015201910190918392612c16565b92607f1692612bc056fea264697066735822122060ecda1d3a679a960e419d91ae41135c0dab9d13143a0a44d3dcd1c1ec13f59864736f6c634300081c0033",
  "linkReferences": {
    "liquefaction/contracts/parsing/TransactionSerializer.sol": {
      "TransactionSerializer": [
        {
          "length": 20,
          "start": 2056
        },
        {
          "length": 20,
          "start": 4800
        },
        {
          "length": 20,
          "start": 6193
        }
      ]
    }
  },
  "deployedLinkReferences": {
    "liquefaction/contracts/parsing/TransactionSerializer.sol": {
      "TransactionSerializer": [
        {
          "length": 20,
          "start": 679
        },
        {
          "length": 20,
          "start": 3423
        },
        {
          "length": 20,
          "start": 4816
        }
      ]
    }
  }
}