{
  "_format": "hh-sol-artifact-1",
  "contractName": "NFTAuctionPolicy",
  "sourceName": "contracts/NFTAuctionPolicy.sol",
  "abi": [
    {
      "inputs": [
        {
          "internalType": "address",
          "name": "_encumberedWallet",
          "type": "address"
        },
        {
          "internalType": "address",
          "name": "_nftContract",
          "type": "address"
        },
        {
          "internalType": "uint256",
          "name": "_nftChainId",
          "type": "uint256"
        },
        {
          "internalType": "uint256",
          "name": "_nftTokenId",
          "type": "uint256"
        },
        {
          "internalType": "uint256",
          "name": "_minOwnershipTime",
          "type": "uint256"
        },
        {
          "internalType": "uint256",
          "name": "_minEncumbranceTimeLeft",
          "type": "uint256"
        },
        {
          "internalType": "contract ConstrainedTransactionPolicy",
          "name": "_constrainedPolicy",
          "type": "address"
        },
        {
          "internalType": "address",
          "name": "_previousOwner",
          "type": "address"
        }
      ],
      "stateMutability": "nonpayable",
      "type": "constructor"
    },
    {
      "inputs": [],
      "name": "EnforcedPause",
      "type": "error"
    },
    {
      "inputs": [],
      "name": "ExpectedPause",
      "type": "error"
    },
    {
      "inputs": [
        {
          "internalType": "address",
          "name": "owner",
          "type": "address"
        }
      ],
      "name": "OwnableInvalidOwner",
      "type": "error"
    },
    {
      "inputs": [
        {
          "internalType": "address",
          "name": "account",
          "type": "address"
        }
      ],
      "name": "OwnableUnauthorizedAccount",
      "type": "error"
    },
    {
      "anonymous": false,
      "inputs": [
        {
          "indexed": true,
          "internalType": "address",
          "name": "previousOwner",
          "type": "address"
        },
        {
          "indexed": true,
          "internalType": "address",
          "name": "newOwner",
          "type": "address"
        }
      ],
      "name": "OwnershipTransferStarted",
      "type": "event"
    },
    {
      "anonymous": false,
      "inputs": [
        {
          "indexed": true,
          "internalType": "address",
          "name": "previousOwner",
          "type": "address"
        },
        {
          "indexed": true,
          "internalType": "address",
          "name": "newOwner",
          "type": "address"
        }
      ],
      "name": "OwnershipTransferred",
      "type": "event"
    },
    {
      "anonymous": false,
      "inputs": [
        {
          "indexed": false,
          "internalType": "address",
          "name": "account",
          "type": "address"
        }
      ],
      "name": "Paused",
      "type": "event"
    },
    {
      "anonymous": false,
      "inputs": [
        {
          "indexed": false,
          "internalType": "address",
          "name": "account",
          "type": "address"
        }
      ],
      "name": "Unpaused",
      "type": "event"
    },
    {
      "inputs": [],
      "name": "acceptOwnership",
      "outputs": [],
      "stateMutability": "nonpayable",
      "type": "function"
    },
    {
      "inputs": [],
      "name": "auctionStartTime",
      "outputs": [
        {
          "internalType": "uint256",
          "name": "",
          "type": "uint256"
        }
      ],
      "stateMutability": "view",
      "type": "function"
    },
    {
      "inputs": [],
      "name": "currentOwner",
      "outputs": [
        {
          "internalType": "address",
          "name": "",
          "type": "address"
        }
      ],
      "stateMutability": "view",
      "type": "function"
    },
    {
      "inputs": [],
      "name": "encumberedWallet",
      "outputs": [
        {
          "internalType": "address",
          "name": "",
          "type": "address"
        }
      ],
      "stateMutability": "view",
      "type": "function"
    },
    {
      "inputs": [],
      "name": "faucetAddress",
      "outputs": [
        {
          "internalType": "address",
          "name": "",
          "type": "address"
        }
      ],
      "stateMutability": "view",
      "type": "function"
    },
    {
      "inputs": [],
      "name": "finalizeAuction",
      "outputs": [],
      "stateMutability": "nonpayable",
      "type": "function"
    },
    {
      "inputs": [
        {
          "internalType": "address",
          "name": "account",
          "type": "address"
        }
      ],
      "name": "getBidBalance",
      "outputs": [
        {
          "internalType": "uint256",
          "name": "bidBalance",
          "type": "uint256"
        }
      ],
      "stateMutability": "view",
      "type": "function"
    },
    {
      "inputs": [
        {
          "internalType": "address",
          "name": "account",
          "type": "address"
        },
        {
          "internalType": "uint256",
          "name": "targetChainId",
          "type": "uint256"
        }
      ],
      "name": "getEthBalance",
      "outputs": [
        {
          "internalType": "uint256",
          "name": "ethBalance",
          "type": "uint256"
        }
      ],
      "stateMutability": "view",
      "type": "function"
    },
    {
      "inputs": [
        {
          "internalType": "address",
          "name": "account",
          "type": "address"
        },
        {
          "internalType": "uint256",
          "name": "chainId",
          "type": "uint256"
        }
      ],
      "name": "getLocalBalance",
      "outputs": [
        {
          "internalType": "uint256",
          "name": "localBalance",
          "type": "uint256"
        }
      ],
      "stateMutability": "view",
      "type": "function"
    },
    {
      "inputs": [],
      "name": "getNFTAsset",
      "outputs": [
        {
          "components": [
            {
              "internalType": "uint256",
              "name": "chainId",
              "type": "uint256"
            },
            {
              "internalType": "address",
              "name": "to",
              "type": "address"
            }
          ],
          "internalType": "struct DestinationAsset",
          "name": "",
          "type": "tuple"
        }
      ],
      "stateMutability": "view",
      "type": "function"
    },
    {
      "inputs": [],
      "name": "getNFTAssetHash",
      "outputs": [
        {
          "internalType": "bytes32",
          "name": "",
          "type": "bytes32"
        }
      ],
      "stateMutability": "view",
      "type": "function"
    },
    {
      "inputs": [
        {
          "internalType": "uint256",
          "name": "maxFeePerGas",
          "type": "uint256"
        },
        {
          "internalType": "address",
          "name": "newOwner",
          "type": "address"
        },
        {
          "internalType": "uint256",
          "name": "nonce",
          "type": "uint256"
        }
      ],
      "name": "getNFTTransferTransaction",
      "outputs": [
        {
          "components": [
            {
              "internalType": "uint256",
              "name": "chainId",
              "type": "uint256"
            },
            {
              "internalType": "uint256",
              "name": "nonce",
              "type": "uint256"
            },
            {
              "internalType": "uint256",
              "name": "maxPriorityFeePerGas",
              "type": "uint256"
            },
            {
              "internalType": "uint256",
              "name": "maxFeePerGas",
              "type": "uint256"
            },
            {
              "internalType": "uint256",
              "name": "gasLimit",
              "type": "uint256"
            },
            {
              "internalType": "bytes",
              "name": "destination",
              "type": "bytes"
            },
            {
              "internalType": "uint256",
              "name": "amount",
              "type": "uint256"
            },
            {
              "internalType": "bytes",
              "name": "payload",
              "type": "bytes"
            }
          ],
          "internalType": "struct Type2TxMessage",
          "name": "transaction",
          "type": "tuple"
        }
      ],
      "stateMutability": "view",
      "type": "function"
    },
    {
      "inputs": [
        {
          "components": [
            {
              "components": [
                {
                  "internalType": "uint256",
                  "name": "chainId",
                  "type": "uint256"
                },
                {
                  "internalType": "uint256",
                  "name": "nonce",
                  "type": "uint256"
                },
                {
                  "internalType": "uint256",
                  "name": "maxPriorityFeePerGas",
                  "type": "uint256"
                },
                {
                  "internalType": "uint256",
                  "name": "maxFeePerGas",
                  "type": "uint256"
                },
                {
                  "internalType": "uint256",
                  "name": "gasLimit",
                  "type": "uint256"
                },
                {
                  "internalType": "bytes",
                  "name": "destination",
                  "type": "bytes"
                },
                {
                  "internalType": "uint256",
                  "name": "amount",
                  "type": "uint256"
                },
                {
                  "internalType": "bytes",
                  "name": "payload",
                  "type": "bytes"
                }
              ],
              "internalType": "struct Type2TxMessage",
              "name": "transaction",
              "type": "tuple"
            },
            {
              "internalType": "uint256",
              "name": "r",
              "type": "uint256"
            },
            {
              "internalType": "uint256",
              "name": "s",
              "type": "uint256"
            },
            {
              "internalType": "uint256",
              "name": "v",
              "type": "uint256"
            }
          ],
          "internalType": "struct Type2TxMessageSigned",
          "name": "signedTx",
          "type": "tuple"
        }
      ],
      "name": "getSigner",
      "outputs": [
        {
          "internalType": "address",
          "name": "signerAccount",
          "type": "address"
        }
      ],
      "stateMutability": "pure",
      "type": "function"
    },
    {
      "inputs": [],
      "name": "isAuctionRunning",
      "outputs": [
        {
          "internalType": "bool",
          "name": "",
          "type": "bool"
        }
      ],
      "stateMutability": "view",
      "type": "function"
    },
    {
      "inputs": [],
      "name": "lastPaid",
      "outputs": [
        {
          "internalType": "uint256",
          "name": "",
          "type": "uint256"
        }
      ],
      "stateMutability": "view",
      "type": "function"
    },
    {
      "inputs": [],
      "name": "minEncumbranceTimeLeft",
      "outputs": [
        {
          "internalType": "uint256",
          "name": "",
          "type": "uint256"
        }
      ],
      "stateMutability": "view",
      "type": "function"
    },
    {
      "inputs": [],
      "name": "minEthBalance",
      "outputs": [
        {
          "internalType": "uint256",
          "name": "",
          "type": "uint256"
        }
      ],
      "stateMutability": "view",
      "type": "function"
    },
    {
      "inputs": [],
      "name": "minOwnershipTime",
      "outputs": [
        {
          "internalType": "uint256",
          "name": "",
          "type": "uint256"
        }
      ],
      "stateMutability": "view",
      "type": "function"
    },
    {
      "inputs": [],
      "name": "minRoseBalance",
      "outputs": [
        {
          "internalType": "uint256",
          "name": "",
          "type": "uint256"
        }
      ],
      "stateMutability": "view",
      "type": "function"
    },
    {
      "inputs": [],
      "name": "nextAuctionEnd",
      "outputs": [
        {
          "internalType": "uint256",
          "name": "time",
          "type": "uint256"
        }
      ],
      "stateMutability": "view",
      "type": "function"
    },
    {
      "inputs": [],
      "name": "nftChainId",
      "outputs": [
        {
          "internalType": "uint256",
          "name": "",
          "type": "uint256"
        }
      ],
      "stateMutability": "view",
      "type": "function"
    },
    {
      "inputs": [],
      "name": "nftContract",
      "outputs": [
        {
          "internalType": "address",
          "name": "",
          "type": "address"
        }
      ],
      "stateMutability": "view",
      "type": "function"
    },
    {
      "inputs": [],
      "name": "nftTokenId",
      "outputs": [
        {
          "internalType": "uint256",
          "name": "",
          "type": "uint256"
        }
      ],
      "stateMutability": "view",
      "type": "function"
    },
    {
      "inputs": [
        {
          "internalType": "address",
          "name": "",
          "type": "address"
        },
        {
          "internalType": "address",
          "name": "account",
          "type": "address"
        },
        {
          "internalType": "bytes32[]",
          "name": "assets",
          "type": "bytes32[]"
        },
        {
          "internalType": "uint256",
          "name": "expiration",
          "type": "uint256"
        },
        {
          "internalType": "bytes",
          "name": "data",
          "type": "bytes"
        }
      ],
      "name": "notifyEncumbranceEnrollment",
      "outputs": [],
      "stateMutability": "nonpayable",
      "type": "function"
    },
    {
      "inputs": [],
      "name": "owner",
      "outputs": [
        {
          "internalType": "address",
          "name": "",
          "type": "address"
        }
      ],
      "stateMutability": "view",
      "type": "function"
    },
    {
      "inputs": [],
      "name": "paused",
      "outputs": [
        {
          "internalType": "bool",
          "name": "",
          "type": "bool"
        }
      ],
      "stateMutability": "view",
      "type": "function"
    },
    {
      "inputs": [],
      "name": "pendingOwner",
      "outputs": [
        {
          "internalType": "address",
          "name": "",
          "type": "address"
        }
      ],
      "stateMutability": "view",
      "type": "function"
    },
    {
      "inputs": [
        {
          "internalType": "address",
          "name": "account",
          "type": "address"
        },
        {
          "internalType": "uint256",
          "name": "amount",
          "type": "uint256"
        }
      ],
      "name": "placeBid",
      "outputs": [],
      "stateMutability": "payable",
      "type": "function"
    },
    {
      "inputs": [],
      "name": "previousOwner",
      "outputs": [
        {
          "internalType": "address",
          "name": "",
          "type": "address"
        }
      ],
      "stateMutability": "view",
      "type": "function"
    },
    {
      "inputs": [],
      "name": "previousTransferBlockNumber",
      "outputs": [
        {
          "internalType": "uint256",
          "name": "",
          "type": "uint256"
        }
      ],
      "stateMutability": "view",
      "type": "function"
    },
    {
      "inputs": [
        {
          "components": [
            {
              "components": [
                {
                  "internalType": "uint256",
                  "name": "chainId",
                  "type": "uint256"
                },
                {
                  "internalType": "uint256",
                  "name": "nonce",
                  "type": "uint256"
                },
                {
                  "internalType": "uint256",
                  "name": "maxPriorityFeePerGas",
                  "type": "uint256"
                },
                {
                  "internalType": "uint256",
                  "name": "maxFeePerGas",
                  "type": "uint256"
                },
                {
                  "internalType": "uint256",
                  "name": "gasLimit",
                  "type": "uint256"
                },
                {
                  "internalType": "bytes",
                  "name": "destination",
                  "type": "bytes"
                },
                {
                  "internalType": "uint256",
                  "name": "amount",
                  "type": "uint256"
                },
                {
                  "internalType": "bytes",
                  "name": "payload",
                  "type": "bytes"
                }
              ],
              "internalType": "struct Type2TxMessage",
              "name": "transaction",
              "type": "tuple"
            },
            {
              "internalType": "uint256",
              "name": "r",
              "type": "uint256"
            },
            {
              "internalType": "uint256",
              "name": "s",
              "type": "uint256"
            },
            {
              "internalType": "uint256",
              "name": "v",
              "type": "uint256"
            }
          ],
          "internalType": "struct Type2TxMessageSigned",
          "name": "signedTransaction",
          "type": "tuple"
        },
        {
          "internalType": "uint256",
          "name": "signedTxIndex",
          "type": "uint256"
        },
        {
          "internalType": "address",
          "name": "newOwner",
          "type": "address"
        },
        {
          "internalType": "uint256",
          "name": "nonce",
          "type": "uint256"
        },
        {
          "internalType": "uint256",
          "name": "maxFeePerGas",
          "type": "uint256"
        }
      ],
      "name": "provePreviousTransfer",
      "outputs": [],
      "stateMutability": "nonpayable",
      "type": "function"
    },
    {
      "inputs": [
        {
          "internalType": "address",
          "name": "account",
          "type": "address"
        },
        {
          "components": [
            {
              "internalType": "uint256",
              "name": "chainId",
              "type": "uint256"
            },
            {
              "internalType": "uint256",
              "name": "nonce",
              "type": "uint256"
            },
            {
              "internalType": "uint256",
              "name": "maxPriorityFeePerGas",
              "type": "uint256"
            },
            {
              "internalType": "uint256",
              "name": "maxFeePerGas",
              "type": "uint256"
            },
            {
              "internalType": "uint256",
              "name": "gasLimit",
              "type": "uint256"
            },
            {
              "internalType": "bytes",
              "name": "destination",
              "type": "bytes"
            },
            {
              "internalType": "uint256",
              "name": "amount",
              "type": "uint256"
            },
            {
              "internalType": "bytes",
              "name": "payload",
              "type": "bytes"
            }
          ],
          "internalType": "struct Type2TxMessage",
          "name": "transaction",
          "type": "tuple"
        }
      ],
      "name": "recoverNFT",
      "outputs": [
        {
          "internalType": "bytes",
          "name": "",
          "type": "bytes"
        }
      ],
      "stateMutability": "view",
      "type": "function"
    },
    {
      "inputs": [],
      "name": "renounceOwnership",
      "outputs": [],
      "stateMutability": "nonpayable",
      "type": "function"
    },
    {
      "inputs": [
        {
          "internalType": "contract ICurrentOwnerMessageReceiver",
          "name": "recipient",
          "type": "address"
        },
        {
          "internalType": "bytes",
          "name": "message",
          "type": "bytes"
        }
      ],
      "name": "sendCurrentOwnerMessage",
      "outputs": [
        {
          "internalType": "bytes",
          "name": "",
          "type": "bytes"
        }
      ],
      "stateMutability": "nonpayable",
      "type": "function"
    },
    {
      "inputs": [
        {
          "internalType": "uint256",
          "name": "_auctionStartTime",
          "type": "uint256"
        }
      ],
      "name": "setAuctionStartTime",
      "outputs": [],
      "stateMutability": "nonpayable",
      "type": "function"
    },
    {
      "inputs": [
        {
          "internalType": "address",
          "name": "_faucetAddress",
          "type": "address"
        }
      ],
      "name": "setFaucetAddress",
      "outputs": [],
      "stateMutability": "nonpayable",
      "type": "function"
    },
    {
      "inputs": [
        {
          "internalType": "uint256",
          "name": "_newOwnershipTime",
          "type": "uint256"
        }
      ],
      "name": "setMinOwnershipTime",
      "outputs": [],
      "stateMutability": "nonpayable",
      "type": "function"
    },
    {
      "inputs": [
        {
          "internalType": "address",
          "name": "_previousOwner",
          "type": "address"
        }
      ],
      "name": "setPreviousProvenOwner",
      "outputs": [],
      "stateMutability": "nonpayable",
      "type": "function"
    },
    {
      "inputs": [
        {
          "internalType": "contract IWalletFactory",
          "name": "factory",
          "type": "address"
        }
      ],
      "name": "setTrustedWalletFactory",
      "outputs": [],
      "stateMutability": "nonpayable",
      "type": "function"
    },
    {
      "inputs": [
        {
          "internalType": "bool",
          "name": "_whitelistEnabled",
          "type": "bool"
        }
      ],
      "name": "setWhitelistEnabled",
      "outputs": [],
      "stateMutability": "nonpayable",
      "type": "function"
    },
    {
      "inputs": [
        {
          "internalType": "uint256",
          "name": "maxFeePerGas",
          "type": "uint256"
        }
      ],
      "name": "signNFTTransferTransaction",
      "outputs": [
        {
          "internalType": "bytes",
          "name": "",
          "type": "bytes"
        }
      ],
      "stateMutability": "view",
      "type": "function"
    },
    {
      "inputs": [
        {
          "internalType": "address",
          "name": "newOwner",
          "type": "address"
        }
      ],
      "name": "transferOwnership",
      "outputs": [],
      "stateMutability": "nonpayable",
      "type": "function"
    },
    {
      "inputs": [],
      "name": "trustedWalletFactory",
      "outputs": [
        {
          "internalType": "contract IWalletFactory",
          "name": "",
          "type": "address"
        }
      ],
      "stateMutability": "view",
      "type": "function"
    },
    {
      "inputs": [],
      "name": "txPolicy",
      "outputs": [
        {
          "internalType": "contract ConstrainedTransactionPolicy",
          "name": "",
          "type": "address"
        }
      ],
      "stateMutability": "view",
      "type": "function"
    },
    {
      "inputs": [
        {
          "internalType": "uint256",
          "name": "_minEthBalance",
          "type": "uint256"
        },
        {
          "internalType": "uint256",
          "name": "_minRoseBalance",
          "type": "uint256"
        }
      ],
      "name": "updateMinimumBalances",
      "outputs": [],
      "stateMutability": "nonpayable",
      "type": "function"
    },
    {
      "inputs": [
        {
          "internalType": "address[]",
          "name": "addresses",
          "type": "address[]"
        },
        {
          "internalType": "bool",
          "name": "isWhitelisted",
          "type": "bool"
        }
      ],
      "name": "updateWhitelist",
      "outputs": [],
      "stateMutability": "nonpayable",
      "type": "function"
    },
    {
      "inputs": [],
      "name": "whitelistEnabled",
      "outputs": [
        {
          "internalType": "bool",
          "name": "",
          "type": "bool"
        }
      ],
      "stateMutability": "view",
      "type": "function"
    },
    {
      "inputs": [
        {
          "internalType": "address",
          "name": "",
          "type": "address"
        }
      ],
      "name": "whitelisted",
      "outputs": [
        {
          "internalType": "bool",
          "name": "",
          "type": "bool"
        }
      ],
      "stateMutability": "view",
      "type": "function"
    },
    {
      "inputs": [
        {
          "internalType": "address",
          "name": "account",
          "type": "address"
        }
      ],
      "name": "withdrawBidBalance",
      "outputs": [],
      "stateMutability": "nonpayable",
      "type": "function"
    }
  ],
  "bytecode": "0x6080346102c857601f612df238819003918201601f19168301916001600160401b038311848410176102cd57808492610100946040528339810103126102c857610048816102e3565b90610055602082016102e3565b916040820151916060810151608082015160a08301519160c08401519360018060a01b0385168095036102c85760e061008e91016102e3565b9560ff196000541660005533156102b257600180546001600160a01b031916905560008054610100600160a81b0319811633600881811b610100600160a81b03169290921784556040519b93909290911c6001600160a01b0316907f8be0079c531659141344cd1fd0a4f28419497f9722a3daafe3b4186f6b6457e09080a3600160ff1b6010819055601181905560125560178054600680546001600160a01b03199081166001600160a01b039b8c1617909155600980549091169390991692909217909755600b91909155600a91909155600e919091556008919091556001600160a81b03191617600160a01b1790556000600f81905566016bcc41e90000600c5567016345785d8a0000600d557fc9dc87552ee1173cf0d56fc53182e89f5fb53531bd2c0e6e3eb55cb88e4b53f7905260056020527f10979a7f02eec95c7d9e2f9298138e6ddaa278c653a2b0c3f2a39226fe2b59f4805490927f10979a7f02eec95c7d9e2f9298138e6ddaa278c653a2b0c3f2a39226fe2b59f3929143111561025c575081546001600160a01b0319166001600160a01b03919091161790554390553360009081526018602052604090819020805460ff1916600117905551612afa90816102f88239f35b62461bcd60e51b815260206004820152602b60248201527f416464726573733a204d756c7469706c65206368616e67657320696e2074686560448201526a2073616d6520626c6f636b60a81b6064820152608490fd5b631e4fbdf760e01b600052600060045260246000fd5b600080fd5b634e487b7160e01b600052604160045260246000fd5b51906001600160a01b03821682036102c85756fe608080604052600436101561001357600080fd5b60003560e01c9081630273d4e214611c2857508063052d9e7e14611be357806312d5ecfd14611bc25780631dfa921d14611a8d578063221dd11e14611a4e5780632afc26de14611a2d5780634fa3461d14611a0f57806351fb012d146119e95780635c975abb146119c65780635d82ed7a146119a8578063674f220f146119675780636a8c8ad81461194c5780636b5430c01461171f5780636b7485b3146116e1578063715018a61461167457806375e3b8dc1461163a57806377086ea01461161357806379ba50971461156f5780637e8305741461155157806388dcd041146114135780638da5cb5b146113e65780638e87f372146113bd5780638ef6711e14611396578063919a91741461136d5780639dba739e1461134f578063a1e37b6d14611331578063ab7d6cbc14611313578063aff177ca1461127b578063b387ef9214611228578063b88e3e53146111fe578063c15e1a7614610db4578063c4b8db4614610d96578063cb05240014610d6d578063cd5fea0314610d4f578063d171718414610cfe578063d3a5bca214610cbb578063d561107d14610c75578063d56d229d14610c4c578063d936547e14610c0d578063d96ca25e14610bd9578063d98b9bb514610625578063e30c3978146105fc578063e35c783e146104ad578063e447dc5814610484578063e814b77614610455578063eb54f9ec14610437578063f1e0510e146103f4578063f2fde38b146103825763f77282ab1461023a57600080fd5b3461037d57600036600319011261037d57610253612908565b61025f600f54426127e0565b600e5411610338576010546001600160a01b03168061027f575b42600f55005b600080516020612a6583398151915260005260056020526102ae81600080516020612aa5833981519152612925565b60018060fe1b036012541690600052601560205260406000206102d28282546127e0565b905580601355804710156102fa575b50600160ff1b6011819055601081905560125538610279565b6014546000918291829182916001600160a01b031682821561032f575bf11561032357386102e1565b6040513d6000823e3d90fd5b506108fc610317565b60405162461bcd60e51b815260206004820152601960248201527f41756374696f6e20686173206e6f7420656e64656420796574000000000000006044820152606490fd5b600080fd5b3461037d57602036600319011261037d5761039b612006565b6103a3612857565b60018060a01b0316806001600160601b0360a01b600154161760015560018060a01b0360005460081c167f38d16b8cac22d99fc7c124b9cd0de2d3fa1faef420bfe791d8c362d765e22700600080a3005b3461037d57602036600319011261037d5761040d612006565b610415612857565b601480546001600160a01b0319166001600160a01b0392909216919091179055005b3461037d57600036600319011261037d576020600f54604051908152f35b3461037d57604036600319011261037d57602061047c610473612006565b602435906127ed565b604051908152f35b3461037d57600036600319011261037d576006546040516001600160a01b039091168152602090f35b3461037d57604036600319011261037d576104c6612006565b602435906001600160401b03821161037d5781600401610100600319843603011261037d57600091610597916104fa612857565b60018060a01b0360175416916105aa6040519687958694859463073658f360e11b865260018060a01b0316600486015260406024860152803560448601526024830135606486015260448301356084860152606483013560a4860152608483013560c486015260e461058461057260a4860184612451565b610100848a0152610144890191612272565b9360c48101356101048801520190612451565b8483036043190161012486015290612272565b03915afa8015610323576105d5916000916105d9575b506040519182916020835260208301906120b2565b0390f35b6105f691503d806000833e6105ee818361218f565b810190612214565b826105c0565b3461037d57600036600319011261037d576001546040516001600160a01b039091168152602090f35b604036600319011261037d57610639612006565b602435610644612908565b6001600160a01b03828116600081815260026020526040902054909161066c911633146126e5565b600f5480421115610b945761068181426127e0565b600e548091108015610b8c575b15610b3b578260005260036020526106b86106af60406000205492846121d6565b600854906121d6565b11610ac657600b546106ca81866127ed565b600c5411610a73576106dc908561267b565b600d5411610a1f57600080516020612a8583398151915260005260056020526001600160a01b0361071a600080516020612a4583398151915261286e565b1682146109bf57821561096e576001600160fe1b03831161093a5760408051602081019283526001600160a01b0386169181019190915261076881606081015b03601f19810183528261218f565b51902080600052600460205260ff604060002054166108f55760005260046020526040600020600160ff1982541617905580600052601560205260406000206107b23482546121d6565b9055600052601560205280604060002054106108a157601154601054601254600360fe1b80841618949193909160006001600160fe1b03851683111561089b5750600019925b8661080385156129ac565b6108176001600160fe1b03841686116129ac565b60009116156108955750600019965b600086891761088f5750600019935b8488166001600160fe1b03908116898b168216888a1617178417601155828a166001600160a01b03908116928916811692909217928616919091169190911790911760105591168116949091169290911616171717601255005b93610835565b96610826565b926107f8565b60405162461bcd60e51b815260206004820152602660248201527f4269642067726561746572207468616e206163636f756e742773206269642062604482015265616c616e636560d01b6064820152608490fd5b60405162461bcd60e51b815260206004820152601d60248201527f42696420616c726561647920706c61636564207468697320726f756e640000006044820152606490fd5b60405162461bcd60e51b815260206004820152600c60248201526b084d2c840e8dede40d0d2ced60a31b6044820152606490fd5b60405162461bcd60e51b8152602060048201526024808201527f42696420616d6f756e74206d7573742062652067726561746572207468616e206044820152637a65726f60e01b6064820152608490fd5b60405162461bcd60e51b815260206004820152603260248201527f4e6f7420616c6c6f77656420746f207369676e207965743b207761697420666f60448201527139103a3432903732bc3a1030bab1ba34b7b760711b6064820152608490fd5b60405162461bcd60e51b815260206004820152602660248201527f4e6f7420656e6f75676820524f53452062616c616e636520746f20706172746960448201526563697061746560d01b6064820152608490fd5b60405162461bcd60e51b815260206004820152602560248201527f4e6f7420656e6f756768204554482062616c616e636520746f20706172746963604482015264697061746560d81b6064820152608490fd5b60405162461bcd60e51b815260206004820152604160248201527f4e6f7420656e6f75676820656e63756d6272616e63652074696d65206c65667460448201527f3b206372656174652061206e657720656e63756d6265726564206163636f756e6064820152601d60fa1b608482015260a490fd5b60405162461bcd60e51b8152602060048201526024808201527f41756374696f6e20656e646564202863616c6c2066696e616c697a6541756374604482015263696f6e2960e01b6064820152608490fd5b50811561068e565b60405162461bcd60e51b815260206004820152601b60248201527f41756374696f6e20686173206e6f7420737461727465642079657400000000006044820152606490fd5b3461037d57600036600319011261037d57610bf2612908565b6020610c03600f54600e54906121d6565b4210604051908152f35b3461037d57602036600319011261037d576001600160a01b03610c2e612006565b166000526018602052602060ff604060002054166040519015158152f35b3461037d57600036600319011261037d576009546040516001600160a01b039091168152602090f35b3461037d57602036600319011261037d576004356001600160a01b0381169081900361037d57610ca3612857565b6001600160601b0360a01b6007541617600755600080f35b3461037d57600036600319011261037d576105d5610cd76127a6565b60408051825181526020928301516001600160a01b03169281019290925290918291820190565b3461037d57602036600319011261037d57610d4d610d1a612006565b610d22612857565b600080516020612a858339815191526000526005602052600080516020612a45833981519152612925565b005b3461037d57600036600319011261037d576020600d54604051908152f35b3461037d57600036600319011261037d576014546040516001600160a01b039091168152602090f35b3461037d57600036600319011261037d576020601354604051908152f35b3461037d5760a036600319011261037d576004356001600160401b03811161037d5760808160040191600319903603011261037d57604435906001600160a01b038216820361037d57610e0c60643583608435612293565b610e2d610e26610e1c848061243c565b60a081019061273d565b369161276f565b6020815191012060a082015160208151910120036111b957610e5f610e26610e55848061243c565b60e081019061273d565b6020815191012060e0820151602081519101200361118057610e81828061243c565b3590510361114657610e9281612508565b600080516020612a8583398151915260005260056020526001600160a01b03610ec8600080516020612a4583398151915261286e565b166001600160a01b0382160361110e5760175460408051630a984cd560e31b81526001600160a01b039384166004820152602480359082015292909183916044918391165afa908115610323576000916110c0575b5060208101908151601654101561105f57610f44600091610f5e935160165551938061243c565b60405180938192634dec0b9b60e11b835260048301612482565b038173__$b0171736f69f8eb9250b2b8dabf000e581$__5af490811561032357600091611044575b506020815191012003610fc257600080516020612a858339815191526000526005602052610d4d90600080516020612a45833981519152612925565b60405162461bcd60e51b815260206004820152604e60248201527f5369676e6564207472616e73616374696f6e206861736820646f6573206e6f7460448201527f206d61746368207265636f7264656420686173682e2044696420796f7520707260648201526d6f766520696e636c7573696f6e3f60901b608482015260a490fd5b61105991503d806000833e6105ee818361218f565b83610f86565b60405162461bcd60e51b815260206004820152603360248201527f5472616e73666572206d75737420636f6d652061667465722070726576696f7560448201527239b63c90383937bb32b7103a3930b739b332b960691b6064820152608490fd5b906040823d604011611106575b816110da6040938361218f565b8101031261110357506020604051916110f283612142565b805183520151602082015283610f1d565b80fd5b3d91506110cd565b60405162461bcd60e51b815260206004820152601060248201526f24b731b7b93932b1ba1039b2b73232b960811b6044820152606490fd5b60405162461bcd60e51b8152602060048201526012602482015271125b98dbdc9c9958dd0818da185a5b881a5960721b6044820152606490fd5b60405162461bcd60e51b8152602060048201526011602482015270125b98dbdc9c9958dd081c185e5b1bd859607a1b6044820152606490fd5b60405162461bcd60e51b815260206004820152601d60248201527f496e636f72726563742064657374696e6174696f6e20616464726573730000006044820152606490fd5b3461037d57600036600319011261037d57611217612908565b602061047c600f54600e54906121d6565b3461037d57600036600319011261037d57600080516020612a6583398151915260005260056020908152611269600080516020612aa583398151915261286e565b6040516001600160a01b039091168152f35b3461037d57604036600319011261037d576004356001600160401b03811161037d576112ab903690600401612032565b6024359081151580920361037d5782906112c3612857565b60ff60009316925b8181106112d457005b6112df8183856121b0565b356001600160a01b038116919082900361037d57600191600052601860205260406000208560ff19825416179055016112cb565b3461037d57600036600319011261037d576020600c54604051908152f35b3461037d57600036600319011261037d576020600854604051908152f35b3461037d57600036600319011261037d576020601654604051908152f35b3461037d57600036600319011261037d576007546040516001600160a01b039091168152602090f35b3461037d57604036600319011261037d576113af612857565b600435600c55602435600d55005b3461037d57600036600319011261037d576017546040516001600160a01b039091168152602090f35b3461037d57600036600319011261037d5760005460405160089190911c6001600160a01b03168152602090f35b3461037d57602036600319011261037d5761142c612006565b6001600160a01b03818116600081815260026020526040902054909291611455911633146126e5565b600f5460408051602081019283526001600160a01b039093169083015290611480816060810161075a565b51902080600052600460205260ff604060002054166114e6576000908152600460209081526040808320805460ff19166001179055928252601590529081208054908290558190819081908181156114dd575b3390f11561032357005b506108fc6114d3565b60405162461bcd60e51b815260206004820152603c60248201527f416c7265616479206269642f77697468647261776e3a207761697420756e746960448201527f6c20746865206e65787420726f756e6420746f207769746864726177000000006064820152608490fd5b3461037d57600036600319011261037d576020600a54604051908152f35b3461037d57600036600319011261037d57600154336001600160a01b03909116036115fe57600180546001600160a01b031916905560008054610100600160a81b0319811633600881811b610100600160a81b03169290921784559291901c6001600160a01b0316907f8be0079c531659141344cd1fd0a4f28419497f9722a3daafe3b4186f6b6457e09080a3005b63118cdaa760e01b6000523360045260246000fd5b3461037d57604036600319011261037d57602061047c611631612006565b6024359061267b565b3461037d57602036600319011261037d576001600160a01b0361165b612006565b1660005260156020526020604060002054604051908152f35b3461037d57600036600319011261037d5761168d612857565b600180546001600160a01b031916905560008054610100600160a81b03198116825560081c6001600160a01b03167f8be0079c531659141344cd1fd0a4f28419497f9722a3daafe3b4186f6b6457e08280a3005b3461037d57602036600319011261037d576004356001600160401b03811161037d576080600319823603011261037d57611269602091600401612508565b3461037d57602036600319011261037d57600080516020612a85833981519152600052600560205261175e600080516020612a4583398151915261286e565b600080516020612a65833981519152600052600560205261178c600080516020612aa583398151915261286e565b601754600b54604051633675192760e21b81526001600160a01b03858116600483015260248201929092529116929190602081604481875afa801561032357600090611918575b6117e1915082600435612293565b6001600160a01b03928316929091168281146118bb57600052600260205260018060a01b0360406000205416331480156118a1575b1561184b576105aa9260009260405180958194829363073658f360e11b845260048401526040602484015260448301906120d7565b60405162461bcd60e51b815260206004820152602860248201527f4f6e6c7920726563697069656e742063616e207369676e2074686973207472616044820152673739b0b1ba34b7b760c11b6064820152608490fd5b506000543360089190911c6001600160a01b031614611816565b60405162461bcd60e51b815260206004820152602f60248201527f50726576696f7573206f776e6572206973207468652073616d6520617320746860448201526e329031bab93932b73a1037bbb732b960891b6064820152608490fd5b506020813d602011611944575b816119326020938361218f565b8101031261037d576117e190516117d3565b3d9150611925565b3461037d57600036600319011261037d57602061047c6123a5565b3461037d57600036600319011261037d57600080516020612a8583398151915260005260056020908152611269600080516020612a4583398151915261286e565b3461037d57600036600319011261037d576020600b54604051908152f35b3461037d57600036600319011261037d57602060ff600054166040519015158152f35b3461037d57600036600319011261037d57602060ff60175460a01c166040519015158152f35b3461037d57600036600319011261037d576020600e54604051908152f35b3461037d57602036600319011261037d57611a46612857565b600435600f55005b3461037d57606036600319011261037d576105d5611a79611a6d61201c565b60443590600435612293565b6040519182916020835260208301906120d7565b3461037d57604036600319011261037d576004356001600160a01b0381169081900361037d576024356001600160401b03811161037d57611ad2903690600401612062565b600080516020612a658339815191526000526005602052906001600160a01b03611b09600080516020612aa583398151915261286e565b166000908152600260205260409020546001600160a01b03163303611b7e57611b549260009283604051809681958294632aabaed160e21b8452602060048501526024840191612272565b03925af18015610323576105d5916000916105d957506040519182916020835260208301906120b2565b606460405162461bcd60e51b815260206004820152602060248201527f4e6f74207468652063757272656e74206f776e6572206f6620746865204e46546044820152fd5b3461037d57602036600319011261037d57611bdb612857565b600435600e55005b3461037d57602036600319011261037d5760043580151580910361037d57611c09612857565b6017805460ff60a01b191660a09290921b60ff60a01b16919091179055005b3461037d5760a036600319011261037d57611c41612006565b50611c4a61201c565b6044356001600160401b03811161037d57611c69903690600401612032565b90606435936084356001600160401b03811161037d57611c8d903690600401612062565b601754919290916001600160a01b03163303611fb35750600754604051633e95771b60e21b81526001600160a01b039687166004820181905296909160209183916024918391165afa90811561032357600091611f74575b5015611f1d57816020918101031261037d57356001600160a01b0381169081900361037d57600084815260026020526040902080546001600160a01b0319166001600160a01b0390921691909117905560175460a01c60ff16158015611eef575b15611eb357600091611d566123a5565b9060005b818110611e8f575050505015611e4a57806000526003602052604060002054611de757611d89600854426121d6565b8210611da2576000526003602052604060002055600080f35b60405162461bcd60e51b815260206004820152601860248201527f45787069726174696f6e2074696d6520746f6f20736f6f6e00000000000000006044820152606490fd5b60405162461bcd60e51b815260206004820152603560248201527f416c7265616479207061727469636970617465643b206372656174652061206e604482015274195dc8195b98dd5b58995c9959081858d8dbdd5b9d605a1b6064820152608490fd5b60405162461bcd60e51b815260206004820152601f60248201527f526571756972656420617373657420616363657373206e6f7420676976656e006044820152606490fd5b82611e9b8284876121b0565b3514611eaa575b600101611d5a565b60019450611ea2565b60405162461bcd60e51b8152602060048201526014602482015273139bdd081a5b881d1a19481dda1a5d195b1a5cdd60621b6044820152606490fd5b5082600052600260205260018060a01b0360406000205416600052601860205260ff60406000205416611d46565b60405162461bcd60e51b815260206004820152602960248201527f4e6f7420637265617465642062792074686520747275737465642077616c6c656044820152687420666163746f727960b81b6064820152608490fd5b6020813d602011611fab575b81611f8d6020938361218f565b81010312611fa75751908115158203611103575087611ce5565b5080fd5b3d9150611f80565b62461bcd60e51b815260206004820152602860248201527f4f6e6c792074686520617574686f72697a656420747820706f6c6963792063616044820152671b88195b9c9bdb1b60c21b6064820152608490fd5b600435906001600160a01b038216820361037d57565b602435906001600160a01b038216820361037d57565b9181601f8401121561037d578235916001600160401b03831161037d576020808501948460051b01011161037d57565b9181601f8401121561037d578235916001600160401b03831161037d576020838186019501011161037d57565b60005b8381106120a25750506000910152565b8181015183820152602001612092565b906020916120cb8151809281855285808601910161208f565b601f01601f1916010190565b61213f91815181526020820151602082015260408201516040820152606082015160608201526080820151608082015260e061212460a084015161010060a08501526101008401906120b2565b9260c081015160c084015201519060e08184039101526120b2565b90565b604081019081106001600160401b0382111761215d57604052565b634e487b7160e01b600052604160045260246000fd5b61010081019081106001600160401b0382111761215d57604052565b90601f801991011681019081106001600160401b0382111761215d57604052565b91908110156121c05760051b0190565b634e487b7160e01b600052603260045260246000fd5b919082018092116121e357565b634e487b7160e01b600052601160045260246000fd5b6001600160401b03811161215d57601f01601f191660200190565b60208183031261037d578051906001600160401b03821161037d570181601f8201121561037d578051612246816121f9565b92612254604051948561218f565b8184526020828401011161037d5761213f916020808501910161208f565b908060209392818452848401376000828201840152601f01601f1916010190565b91606060e06040516122a481612173565b600081526000602082015260006040820152600083820152600060808201528260a0820152600060c08201520152600080516020612a8583398151915260005260056020526122f6604060002061286e565b600a546040516323b872dd60e01b60208201526001600160a01b039283166024820152939091166044840152606480840191909152825261233860848361218f565b600b54926001600160601b031960095460601b16916040519260208401526014835261236560348461218f565b6040519461237286612173565b855260208501526305f5e1006040850152606084015262030d40608084015260a0830152600060c083015260e082015290565b6017546123f7906020906001600160a01b03166123c06127a6565b60405163c601b35f60e01b8152815160048201526020909101516001600160a01b0316602482015292839190829081906044820190565b03915afa9081156103235760009161240d575090565b90506020813d602011612434575b816124286020938361218f565b8101031261037d575190565b3d915061241b565b90359060fe198136030182121561037d570190565b9035601e198236030181121561037d5701602081359101916001600160401b03821161037d57813603831361037d57565b9061213f916020815281356020820152602082013560408201526040820135606082015260608201356080820152608082013560a08201526124f56124e06124cd60a0850185612451565b61010060c0860152610120850191612272565b9260c081013560e084015260e0810190612451565b91610100601f1982860301910152612272565b612532906000612518828061243c565b60405180948192634dec0b9b60e11b835260048301612482565b038173__$b0171736f69f8eb9250b2b8dabf000e581$__5af48015610323576125a492600091612606575b5060208151910120604051916020810135602084015260408101356040840152606060ff60f81b91013560f81b1660608301526041825261259f60618361218f565b6128cc565b5091909160048110156125f0576125b757565b60405162461bcd60e51b8152602060048201526011602482015270496e76616c6964207369676e617475726560781b6044820152606490fd5b634e487b7160e01b600052602160045260246000fd5b61261b91503d806000833e6105ee818361218f565b3861255d565b1561262857565b60405162461bcd60e51b815260206004820152602560248201527f4e6f7420617574686f72697a6564206d616e61676572206f662074686520616360448201526418dbdd5b9d60da1b6064820152608490fd5b6123f79160209160018060a01b038116600052600283526126aa60018060a01b03604060002054163314612621565b601754604051636e24ca3d60e01b81526001600160a01b03928316600482015260248101939093529193849290911690829081906044820190565b156126ec57565b60405162461bcd60e51b815260206004820152602360248201527f4f6e6c792074686520617574686f72697a6564206d616e616765722063616e20604482015262189a5960ea1b6064820152608490fd5b903590601e198136030182121561037d57018035906001600160401b03821161037d5760200191813603831361037d57565b92919261277b826121f9565b91612789604051938461218f565b82948184528183011161037d578281602093846000960137010152565b600060206040516127b681612142565b8281520152600b5460018060a01b0360095416604051916127d683612142565b8252602082015290565b919082039182116121e357565b6123f79160209160018060a01b0381166000526002835261281c60018060a01b03604060002054163314612621565b60175460405163740a5bbb60e11b81526001600160a01b03928316600482015260248101939093529193849290911690829081906044820190565b60005460081c6001600160a01b031633036115fe57565b600181015443111561288757546001600160a01b031690565b60405162461bcd60e51b815260206004820152601f60248201527f416464726573732069732070656e64696e672066696e616c697a6174696f6e006044820152606490fd5b81519190604183036128fd576128f692506020820151906060604084015193015160001a906129bb565b9192909190565b505060009160029190565b60ff6000541661291457565b63d93c066560e01b60005260046000fd5b600181019182544311156129535781546001600160a01b0319166001600160a01b0391909116179055439055565b60405162461bcd60e51b815260206004820152602b60248201527f416464726573733a204d756c7469706c65206368616e67657320696e2074686560448201526a2073616d6520626c6f636b60a81b6064820152608490fd5b156129b657600190565b600090565b91907f7fffffffffffffffffffffffffffffff5d576e7357a4501ddfe92f46681b20a08411612a38579160209360809260ff60009560405194855216868401526040830152606082015282805260015afa15610323576000516001600160a01b03811615612a2c5790600090600090565b50600090600190600090565b5050506000916003919056fe10979a7f02eec95c7d9e2f9298138e6ddaa278c653a2b0c3f2a39226fe2b59f322c29902007c06cabd046e0258738568a022df4573087a3880655da776e30346c9dc87552ee1173cf0d56fc53182e89f5fb53531bd2c0e6e3eb55cb88e4b53f74e04ab84a36f9f007081f585bdb8511cae0b13343e6698bff178b0976b4f6d5aa2646970667358221220a64fd3f40bba818cf297f981a143ec45b1c67363b9160a1d76d8440c55d9ceac64736f6c634300081c0033",
  "linkReferences": {
    "liquefaction/contracts/parsing/TransactionSerializer.sol": {
      "TransactionSerializer": [
        {
          "length": 20,
          "start": 4698
        },
        {
          "length": 20,
          "start": 10286
        }
      ]
    }
  },
  "deployedLinkReferences": {
    "liquefaction/contracts/parsing/TransactionSerializer.sol": {
      "TransactionSerializer": [
        {
          "length": 20,
          "start": 3938
        },
        {
          "length": 20,
          "start": 9526
        }
      ]
    }
  }
}