{
  "_format": "hh-sol-artifact-1",
  "contractName": "NFTOwnerControls",
  "sourceName": "contracts/NFTOwnerControls.sol",
  "abi": [
    {
      "inputs": [
        {
          "internalType": "contract INFTAuctionPolicy",
          "name": "_auctionPolicy",
          "type": "address"
        }
      ],
      "stateMutability": "nonpayable",
      "type": "constructor"
    },
    {
      "inputs": [],
      "name": "getImageBlurred",
      "outputs": [
        {
          "internalType": "bool",
          "name": "",
          "type": "bool"
        }
      ],
      "stateMutability": "view",
      "type": "function"
    },
    {
      "inputs": [],
      "name": "isImageBlurred",
      "outputs": [
        {
          "internalType": "bool",
          "name": "",
          "type": "bool"
        }
      ],
      "stateMutability": "view",
      "type": "function"
    },
    {
      "inputs": [
        {
          "internalType": "bytes",
          "name": "data",
          "type": "bytes"
        }
      ],
      "name": "onCurrentOwnerMessage",
      "outputs": [
        {
          "internalType": "bytes",
          "name": "",
          "type": "bytes"
        }
      ],
      "stateMutability": "nonpayable",
      "type": "function"
    }
  ],
  "bytecode": "0x608034607057601f61036838819003918201601f19168301916001600160401b03831184841017607557808492602094604052833981010312607057516001600160a01b03811690819003607057600080546001600160a81b0319169190911790556040516102dc908161008c8239f35b600080fd5b634e487b7160e01b600052604160045260246000fdfe608080604052600436101561001357600080fd5b60003560e01c9081637bcbae301461028357508063aaaebb441461006b5763ef8b4a4f1461004057600080fd5b3461006657600036600319011261006657602060ff60005460a01c166040519015158152f35b600080fd5b346100665760203660031901126100665760043567ffffffffffffffff8111610066573660238201121561006657806004013567ffffffffffffffff8111610066578082019136602484011161006657600054916001600160a01b038316330361023e5760048110610203576004116100665760248101356001600160e01b031916631d68cd1960e21b036101be57602060009360248360271992030101126101ba57602801358015158091036101ba5760ff60a01b1990911660a09190911b60ff60a01b161790556040516020810167ffffffffffffffff8111828210176101a4576040526000815260405190602082528181519182602083015260005b83811061018c5750508160006040809484010152601f80199101168101030190f35b6020828201810151604087840101528593500161016a565b634e487b7160e01b600052604160045260246000fd5b8280fd5b60405162461bcd60e51b815260206004820152601a60248201527f556e6b6e6f776e2066756e6374696f6e207369676e61747572650000000000006044820152606490fd5b60405162461bcd60e51b8152602060048201526013602482015272092dcecc2d8d2c840c8c2e8c240d8cadccee8d606b1b6044820152606490fd5b60405162461bcd60e51b815260206004820152601e60248201527f4e6f742073656e74206279207468652061756374696f6e20706f6c69637900006044820152606490fd5b346100665760003660031901126100665760209060ff60005460a01c1615158152f3fea26469706673582212208ff38e38b1e941c447dc6be3abb018e2a0bb65ec052524555ec6aaeed7b35bd164736f6c634300081c0033",
  "linkReferences": {},
  "deployedLinkReferences": {}
}