{
  "_format": "hh-sol-artifact-1",
  "contractName": "WalletConnectMessagePolicy",
  "sourceName": "contracts/WalletConnectMessagePolicy.sol",
  "abi": [
    {
      "inputs": [
        {
          "internalType": "address",
          "name": "_encumberedWallet",
          "type": "address"
        }
      ],
      "stateMutability": "nonpayable",
      "type": "constructor"
    },
    {
      "inputs": [
        {
          "internalType": "address",
          "name": "",
          "type": "address"
        }
      ],
      "name": "authorizedManagers",
      "outputs": [
        {
          "internalType": "address",
          "name": "",
          "type": "address"
        }
      ],
      "stateMutability": "view",
      "type": "function"
    },
    {
      "inputs": [],
      "name": "encumberedWallet",
      "outputs": [
        {
          "internalType": "contract BasicEncumberedWallet",
          "name": "",
          "type": "address"
        }
      ],
      "stateMutability": "view",
      "type": "function"
    },
    {
      "inputs": [
        {
          "internalType": "address",
          "name": "",
          "type": "address"
        },
        {
          "internalType": "address",
          "name": "account",
          "type": "address"
        },
        {
          "internalType": "bytes32[]",
          "name": "",
          "type": "bytes32[]"
        },
        {
          "internalType": "uint256",
          "name": "",
          "type": "uint256"
        },
        {
          "internalType": "bytes",
          "name": "data",
          "type": "bytes"
        }
      ],
      "name": "notifyEncumbranceEnrollment",
      "outputs": [],
      "stateMutability": "nonpayable",
      "type": "function"
    },
    {
      "inputs": [
        {
          "internalType": "bytes",
          "name": "message",
          "type": "bytes"
        },
        {
          "internalType": "address",
          "name": "account",
          "type": "address"
        }
      ],
      "name": "signMessage",
      "outputs": [
        {
          "internalType": "bytes",
          "name": "",
          "type": "bytes"
        }
      ],
      "stateMutability": "view",
      "type": "function"
    },
    {
      "inputs": [
        {
          "internalType": "address",
          "name": "account",
          "type": "address"
        },
        {
          "components": [
            {
              "internalType": "string",
              "name": "name",
              "type": "string"
            },
            {
              "internalType": "string",
              "name": "version",
              "type": "string"
            },
            {
              "internalType": "uint256",
              "name": "chainId",
              "type": "uint256"
            },
            {
              "internalType": "address",
              "name": "verifyingContract",
              "type": "address"
            },
            {
              "internalType": "bytes32",
              "name": "salt",
              "type": "bytes32"
            },
            {
              "internalType": "uint256",
              "name": "usedParamsMask",
              "type": "uint256"
            }
          ],
          "internalType": "struct EIP712DomainParams",
          "name": "domain",
          "type": "tuple"
        },
        {
          "internalType": "string",
          "name": "dataType",
          "type": "string"
        },
        {
          "internalType": "bytes",
          "name": "data",
          "type": "bytes"
        }
      ],
      "name": "signTypedData",
      "outputs": [
        {
          "internalType": "bytes",
          "name": "",
          "type": "bytes"
        }
      ],
      "stateMutability": "view",
      "type": "function"
    }
  ],
  "bytecode": "0x608034607057601f610bc338819003918201601f19168301916001600160401b03831184841017607557808492602094604052833981010312607057516001600160a01b03811690819003607057600080546001600160a01b031916919091179055604051610b37908161008c8239f35b600080fd5b634e487b7160e01b600052604160045260246000fdfe608080604052600436101561001357600080fd5b60003560e01c9081630273d4e2146106c3575080630a3cb21b146106485780633007ed4114610433578063a5bbaaa9146100ad5763e447dc581461005657600080fd5b346100a85760007ffffffffffffffffffffffffffffffffffffffffffffffffffffffffffffffffc3601126100a857602073ffffffffffffffffffffffffffffffffffffffff60005416604051908152f35b600080fd5b346100a85760807ffffffffffffffffffffffffffffffffffffffffffffffffffffffffffffffffc3601126100a8576100e461085f565b60243567ffffffffffffffff81116100a85760c07ffffffffffffffffffffffffffffffffffffffffffffffffffffffffffffffffc82360301126100a85760405160c0810181811067ffffffffffffffff82111761040457604052816004013567ffffffffffffffff81116100a85761016390600436918501016109b4565b8152602482013567ffffffffffffffff81116100a85761018990600436918501016109b4565b926020820193845260408201906044840135825260648401359373ffffffffffffffffffffffffffffffffffffffff851685036100a8576060840194855260808401926084820135845260a460a08601920135825260443567ffffffffffffffff81116100a8576101fe9036906004016108a5565b60649291923567ffffffffffffffff81116100a8576102219036906004016108a5565b94909573ffffffffffffffffffffffffffffffffffffffff169687600052600160205260406000205473ffffffffffffffffffffffffffffffffffffffff16331461026b906109fb565b60005473ffffffffffffffffffffffffffffffffffffffff16996040519b8c9a8b9a7fa5bbaaa9000000000000000000000000000000000000000000000000000000008c5260048c015260248b01608090525160848b0160c090526101448b016102d4916108f6565b9051908a81037fffffffffffffffffffffffffffffffffffffffffffffffffffffffffffffff7c0160a48c015261030a916108f6565b945160c48a01525173ffffffffffffffffffffffffffffffffffffffff1660e489015251610104880152516101248701528582037ffffffffffffffffffffffffffffffffffffffffffffffffffffffffffffffffc01604487015261036e92610ac2565b908382037ffffffffffffffffffffffffffffffffffffffffffffffffffffffffffffffffc0160648501526103a292610ac2565b03815a93600094fa80156103f8576103d1916000916103d5575b506040519182916020835260208301906108f6565b0390f35b6103f291503d806000833e6103ea8183610939565b810190610a60565b826103bc565b6040513d6000823e3d90fd5b7f4e487b7100000000000000000000000000000000000000000000000000000000600052604160045260246000fd5b346100a85760407ffffffffffffffffffffffffffffffffffffffffffffffffffffffffffffffffc3601126100a85760043567ffffffffffffffff81116100a8576104829036906004016108a5565b9061048b610882565b90821580156105c9575b1561056b576105419273ffffffffffffffffffffffffffffffffffffffff600093169081845260016020526104e573ffffffffffffffffffffffffffffffffffffffff60408620541633146109fb565b73ffffffffffffffffffffffffffffffffffffffff84541691604051958694859384937fb56d44c50000000000000000000000000000000000000000000000000000000085526004850152604060248501526044840191610ac2565b03915afa80156103f8576103d1916000916103d557506040519182916020835260208301906108f6565b60646040517f08c379a000000000000000000000000000000000000000000000000000000000815260206004820152601f60248201527f5472616e73616374696f6e207369676e696e67206e6f7420616c6c6f776564006044820152fd5b610619577f02000000000000000000000000000000000000000000000000000000000000007fff000000000000000000000000000000000000000000000000000000000000008235161415610495565b7f4e487b7100000000000000000000000000000000000000000000000000000000600052603260045260246000fd5b346100a85760207ffffffffffffffffffffffffffffffffffffffffffffffffffffffffffffffffc3601126100a85773ffffffffffffffffffffffffffffffffffffffff61069461085f565b166000526001602052602073ffffffffffffffffffffffffffffffffffffffff60406000205416604051908152f35b346100a85760a07ffffffffffffffffffffffffffffffffffffffffffffffffffffffffffffffffc3601126100a8576106fa61085f565b50610703610882565b9060443567ffffffffffffffff81116100a857366023820112156100a85780600401359067ffffffffffffffff82116100a857602490369260051b0101116100a85760843567ffffffffffffffff81116100a8576107659036906004016108a5565b909173ffffffffffffffffffffffffffffffffffffffff600054163303610803575081602091810103126100a857359073ffffffffffffffffffffffffffffffffffffffff82168092036100a85773ffffffffffffffffffffffffffffffffffffffff1660005260016020526040600020907fffffffffffffffffffffffff0000000000000000000000000000000000000000825416179055600080f35b807f08c379a0000000000000000000000000000000000000000000000000000000006064925260206004820152601760248201527f556e617574686f72697a656420656e726f6c6c6d656e740000000000000000006044820152fd5b6004359073ffffffffffffffffffffffffffffffffffffffff821682036100a857565b6024359073ffffffffffffffffffffffffffffffffffffffff821682036100a857565b9181601f840112156100a85782359167ffffffffffffffff83116100a857602083818601950101116100a857565b60005b8381106108e65750506000910152565b81810151838201526020016108d6565b907fffffffffffffffffffffffffffffffffffffffffffffffffffffffffffffffe0601f602093610932815180928187528780880191016108d3565b0116010190565b90601f7fffffffffffffffffffffffffffffffffffffffffffffffffffffffffffffffe0910116810190811067ffffffffffffffff82111761040457604052565b67ffffffffffffffff811161040457601f017fffffffffffffffffffffffffffffffffffffffffffffffffffffffffffffffe01660200190565b81601f820112156100a8578035906109cb8261097a565b926109d96040519485610939565b828452602083830101116100a857816000926020809301838601378301015290565b15610a0257565b60646040517f08c379a000000000000000000000000000000000000000000000000000000000815260206004820152601b60248201527f4f6e6c79206163636f756e74206f776e65722063616e207369676e00000000006044820152fd5b6020818303126100a85780519067ffffffffffffffff82116100a8570181601f820112156100a8578051610a938161097a565b92610aa16040519485610939565b818452602082840101116100a857610abf91602080850191016108d3565b90565b601f82602094937fffffffffffffffffffffffffffffffffffffffffffffffffffffffffffffffe093818652868601376000858286010152011601019056fea2646970667358221220a7e8191b5b94850dc4d585b5f15a58960e660309668318c63506aa94bcf9f0b164736f6c634300081c0033",
  "linkReferences": {},
  "deployedLinkReferences": {}
}